:020000040000FA
:100000000C9462000C948A000C948A000C948A0070
:100010000C948A000C948A000C948A000C948A0038
:100020000C948A000C948A000C948A000C94EA03C5
:100030000C948A000C948A000C948A000C948A0018
:100040000C9448030C948A000C94B8030C9492030B
:100050000C948A000C948A000C948A000C948A00F8
:100060000C948A000C948A000000000023002600F3
:10007000290000000000240027002A0000000000E2
:10008000250028002B0004040404040404040202D4
:100090000202020203030303030301020408102007
:1000A0004080010204081020010204081020000012
:1000B0000008000201000003040700000000000027
:1000C0000000EB0411241FBECFEFD8E0DEBFCDBF90
:1000D00011E0A0E0B1E0EAE0F4E102C005900D9289
:1000E000A231B107D9F721E0A2E1B1E001C01D9230
:1000F000A53EB207E1F710E0C2E6D0E004C02197C8
:10010000FE010E94FD09C136D107C9F70E944805CA
:100110000C94030A0C94000090E0FC01E255FF4FA0
:100120002491FC01E656FF4F3491FC01EA57FF4F42
:10013000E491EE23C9F0222339F0233001F1A8F431
:10014000213019F1223029F1F0E0EE0FFF1FE458C1
:10015000FF4FA591B4918FB7F894EC91611126C02F
:1001600030953E233C938FBF08952730A9F0283067
:10017000C9F0243049F7809180008F7D03C08091C1
:1001800080008F7780938000DFCF84B58F7784BD28
:10019000DBCF84B58F7DFBCF8091B0008F778093CC
:1001A000B000D2CF8091B0008F7DF9CF3E2BDACF57
:1001B000CF93DF9390E0FC01E656FF4F24918A57DE
:1001C0009F4FFC0184918823D1F090E0880F991F04
:1001D000FC01EE58FF4FA591B491FC01E458FF4F8C
:1001E000C591D49161110EC09FB7F8948C91E22F04
:1001F000E0958E238C932881E223E8839FBFDF91D3
:10020000CF9108958FB7F894EC91E22BEC938FBFC8
:10021000F6CF1F93CF93DF93182FEB0161E00E947D
:10022000D800209739F460E0812FDF91CF911F91A2
:100230000C948C00CF3FD10511F461E0F5CFE12F94
:10024000F0E0E255FF4FE491E33031F140F4E1306A
:10025000B1F0E230E1F0C038D1057CF7E4CFE7300F
:1002600029F1E83059F1E430B1F7809180008062E3
:1002700080938000D0938B00C0938A0004C084B523
:10028000806884BDC7BDDF91CF911F91089584B56B
:10029000806284BDC8BDF7CF809180008068809364
:1002A0008000D0938900C0938800EDCF8091B0008A
:1002B00080688093B000C093B300E5CF8091B00018
:1002C00080628093B000C093B400DDCF3FB7F89454
:1002D00080911C0190911D01A0911E01B0911F0100
:1002E00026B5A89B05C02F3F19F00196A11DB11D91
:1002F0003FBFBA2FA92F982F8827BC01CD01620FCD
:10030000711D811D911D42E0660F771F881F991F87
:100310004A95D1F70895AF92BF92CF92DF92EF92B4
:10032000FF920F931F93CF93DF936C017B018B019F
:10033000040F151FEB015E01AE18BF08C017D107EF
:1003400059F06991D601ED91FC910190F081E02D79
:10035000C6010995892B79F7C501DF91CF911F91CE
:100360000F91FF90EF90DF90CF90BF90AF900895E6
:10037000FC01538D448D252F30E0842F90E0821BAB
:10038000930B541710F0CF96089501970895FC0130
:10039000918D828D981761F0A28DAE0FBF2FB11D88
:1003A0005D968C91928D9F5F9F73928F90E00895E0
:1003B0008FEF9FEF0895FC01918D828D981731F09A
:1003C000828DE80FF11D858D90E008958FEF9FEFEE
:1003D0000895FC01918D228D892F90E0805C9F4FC4
:1003E000821B91098F739927089580E291E00E9402
:1003F000E90121E0892B09F420E0822F089580E0B3
:1004000090E0892B29F00E94F50181110C940000E5
:100410000895FC01A48DA80FB92FB11DA35ABF4F99
:100420002C91848D90E001968F739927848FA689F3
:10043000B7892C93A089B1898C91837080648C9347
:10044000938D848D981306C00288F389E02D8081F6
:100450008F7D80830895EF92FF920F931F93CF9328
:10046000DF93EC0181E0888F9B8D8C8D98131AC0EF
:10047000E889F989808185FF15C09FB7F894EE89D6
:10048000FF896083E889F989808183708064808333
:100490009FBF81E090E0DF91CF911F910F91FF907E
:1004A000EF900895F62E0B8D10E00F5F1F4F0F7326
:1004B0001127E02E8C8D8E110CC00FB607FCFACFE1
:1004C000E889F989808185FFF5CFCE010E94090274
:1004D000F1CFEB8DEC0FFD2FF11DE35AFF4FF082B2
:1004E0009FB7F8940B8FEA89FB8980818062CFCF18
:1004F000CF93DF93EC01888D8823B9F0AA89BB895B
:10050000E889F9898C9185FD03C0808186FD0DC045
:100510000FB607FCF7CF8C9185FFF2CF808185FF66
:10052000EDCFCE010E940902E9CFDF91CF9108956E
:100530002F923F924F925F926F927F929F92AF92D3
:10054000BF92CF92DF92EF92FF920F931F93CF93C0
:10055000DF9300D000D0CDB7DEB7982E83E090E0D7
:100560009C838B83412C512C32012FE0C22ED12C45
:1005700033E2A32EB12CFB01E656FF4FFA83E98349
:10058000CB018A579F4F1C0143ECE42EF12C60E015
:10059000892D0E948C00C6010197F1F761E0892D39
:1005A0000E948C00C5010197F1F760E0892D0E943F
:1005B0008C00E981FA816491F1018491E82FF0E0E7
:1005C000EE0FFF1FE859FF4F8591949100E412E46C
:1005D0002FE030E0462F0E94A604611571058105C9
:1005E000910529F06F5F7F4F8F4F9F4F9F700E9443
:1005F0005F0720E030E040E05FE30E94BE072DECA3
:100600003CEC48EE51E40E9444099B01AC01C3015B
:10061000B2010E94D8082B013C01C7010197F1F7F4
:100620008B819C8101979C838B83892B09F0AFCFB1
:1006300020E030E040E450E4C301B2010E944409EC
:100640006B017C0120E030E048EC51E40E94EC09B1
:10065000181634F4C12CD12C88ECE82E81E4F82E45
:10066000C701B6010F900F900F900F90DF91CF91BF
:100670001F910F91FF90EF90DF90CF90BF90AF90C0
:100680009F907F906F905F904F903F902F90089534
:100690001F920F920FB60F9211242F933F938F93B7
:1006A0009F93AF93BF938091180190911901A091EE
:1006B0001A01B0911B013091170123E0230F2D3750
:1006C00058F50196A11DB11D2093170180931801C3
:1006D00090931901A0931A01B0931B0180911C0102
:1006E00090911D01A0911E01B0911F010196A11DC5
:1006F000B11D80931C0190931D01A0931E01B09326
:100700001F01BF91AF919F918F913F912F910F90BA
:100710000FBE0F901F90189526E8230F0296A11D7B
:10072000B11DD2CF1F920F920FB60F9211242F93AB
:100730003F934F935F936F937F938F939F93AF9369
:10074000BF93EF93FF9380E291E00E940902FF9133
:10075000EF91BF91AF919F918F917F916F915F9139
:100760004F913F912F910F900FBE0F901F901895B2
:100770001F920F920FB60F9211242F938F939F9376
:10078000EF93FF93E0913001F09131018081E0918E
:100790003601F091370182FD1BC0908180913901B3
:1007A0008F5F8F7320913A01821741F0E0913901F8
:1007B000F0E0E05EFE4F958F80933901FF91EF915D
:1007C0009F918F912F910F900FBE0F901F901895B2
:1007D0008081F4CF1F920F920FB60F9211242F93A6
:1007E0003F934F935F936F937F938F939F93AF93B9
:1007F000BF93CF93DF93EF93FF9380911201C0914A
:10080000E101D0E087FF24C010928500109284009F
:10081000809112018F5F8093120180911201082E46
:10082000000C990B8C179D0724F4809112018C30D9
:10083000C4F18091840090918500049680349C4995
:1008400008F47AC08091840090918500049676C067
:1008500080911201082E000C990B8C179D07C4F68D
:10086000E09112018E2FEE0F990BFC01EE0FFF1F8E
:10087000E80FF91FE354FE4F808186FFC9CFE09156
:1008800012018E2FEE0F990BFC01EE0FFF1FE80FE8
:10089000F91FE354FE4F808160E08F730E948C004B
:1008A000B7CF2091840030918500E09112018E2F06
:1008B000EE0F990BFC01EE0FFF1FE80FF91FE35439
:1008C000FE4F81819281820F931F909389008093C4
:1008D0008800E09112018E2FEE0F990BFC01EE0FB4
:1008E000FF1FE80FF91FE354FE4F808186FF11C000
:1008F000E09112018E2FEE0F990BFC01EE0FFF1FFE
:10090000E80FF91FE354FE4F808161E08F730E946E
:100910008C00FF91EF91DF91CF91BF91AF919F91AB
:100920008F917F916F915F914F913F912F910F9098
:100930000FBE0F901F90189580E49CE9909389005A
:10094000809388008FEF80931201E3CFCF92DF92E4
:10095000EF92FF920F931F93E82FF92F05C00150DC
:1009600011092109310961F1908196239417B9F396
:1009700005C0015011092109310911F19081962317
:100980009413F7CFC12CD12CE12CF12C0AC08FEF9E
:10099000C81AD80AE80AF80A0C151D052E053F05E5
:1009A00079F080818623841791F36C2D7D2D8E2D17
:1009B0009F2D1F910F91FF90EF90DF90CF900895A2
:1009C00060E070E080E090E01F910F91FF90EF9069
:1009D000DF90CF900895109223011092220188EEAB
:1009E00093E0A0E0B0E08093240190932501A093D0
:1009F0002601B093270184E091E090932101809338
:100A0000200185EC90E090932D0180932C0184ECE3
:100A100090E090932F0180932E0180EC90E09093D2
:100A200031018093300181EC90E090933301809309
:100A3000320182EC90E0909335018093340186EC92
:100A400090E0909337018093360110923901109213
:100A50003A0110923B0110923C018091E1018C30EF
:100A600098F491E0980F9093E1018093E20190E077
:100A7000FC01EE0FFF1FE80FF91FE354FE4F88EB58
:100A80009BE09283818308958FEF8093E201089524
:100A9000789484B5826084BD84B5816084BD85B559
:100AA000826085BD85B5816085BD80916E00816065
:100AB00080936E001092810080918100826080930B
:100AC000810080918100816080938100809180000D
:100AD0008160809380008091B10084608093B10038
:100AE0008091B00081608093B00080917A00846032
:100AF00080937A0080917A00826080937A0080915E
:100B00007A00816080937A0080917A008068809377
:100B10007A001092C10061E087E00E94D80061E095
:100B200084E00E94D80061E083E00E94D80061E088
:100B300082E00E94D80061E085E00E94D80061E078
:100B400086E00E94D80061E08CE00E94D80060E05E
:100B50008DE00E94D80061E08AE00E94D80060E049
:100B60008BE00E94D8008091E2018C3008F051C0E7
:100B700061E089E00E94D8008091E201282F30E0F6
:100B8000F901EE0FFF1FE20FF31FE354FE4F9081B8
:100B9000907C996090831092E3011092E4012CE024
:100BA000622F0E94F109829FB001112430E020E001
:100BB000AB01420F531FFA01EE0FFF1FE40FF51FA9
:100BC000E354FE4F908196FD16C02F5F3F4F2C30AF
:100BD000310571F781110FC01092800082E080937F
:100BE00081001092850010928400B19A80916F006C
:100BF000826080936F00E091E2018E2F90E0FC0113
:100C0000EE0FFF1FE80FF91FE354FE4F8081806451
:100C10008083F090E2018091E40108E512E0081B76
:100C2000110987FD1395000F111F000F111F8091EF
:100C3000E301C8E8D0E0C81BD10987FDD395CC0FEC
:100C4000DD1FCC0FDD1F4E010D2E000CAA08BB08C6
:100C50009801012E000C440B550B281939094A093B
:100C60005B09AAE5B0E00E949B0824EB30E040E07D
:100C700050E00E947C08820E931EA41EB51E2BE03D
:100C80002F15C8F08C169D062CF0E80180169106F1
:100C90000CF4E4012297CC0FDD1F2FB7F8948F2DB1
:100CA00090E0FC01EE0FFF1FE80FF91FE354FE4F29
:100CB000D283C1832FBFE0913001F091310182E0F6
:100CC0008083E0912C01F0912D011082E0912E01A2
:100CD000F0912F018FEC808310923801E091340164
:100CE000F091350186E08083E0913201F09133018B
:100CF000808180618083E0913201F09133018081B5
:100D000088608083E0913201F091330180818068B6
:100D10008083E0913201F091330180818F7D808367
:100D2000C0E0D0E06BE070E08AE090E00E949802C2
:100D300020E030E040E751E40E94D7086B017C01DD
:100D40002091130130911401409115015091160129
:100D50000E94D7082FE832EC45EF5CE30E9444097B
:100D60002DEC3CEC4CE45FE30E94BE074B015C01C0
:100D7000C0921301D0921401E0921501F092160175
:100D80002AE939E949E15EE3C701B6010E94BE07DD
:100D9000A50194010E94D8080E94B609072E000CF4
:100DA000880B990B0E945F076B017C01AC019B01D2
:100DB00060E070E08CE892E40E94D7080E94B609D7
:100DC00085E00E94090161E087E00E948C0060E0FC
:100DD00084E00E948C0020E030E04CE852E4C7013F
:100DE000B6010E94D8080E94B60986E00E94090157
:100DF00061E083E00E948C0060E082E00E948C0051
:100E00006DE070E08CE090E00E94980220E030E01D
:100E100040EA50E40E94580787FF3FC06CE870E04A
:100E200085E00E94090160E087E00E948C0061E09B
:100E300084E00E948C0062ED70E086E00E9409016F
:100E400060E083E00E948C0061E082E00E948C0000
:100E50000E9466014B015C018CE2C82EDD24D39414
:100E6000E12CF12C0E946601681979098A099B0915
:100E7000683E734081059105A8F381E0C81AD10846
:100E8000E108F10828EE820E23E0921EA11CB11C9D
:100E9000C114D104E104F10429F7209709F442CFE9
:100EA0000E94F501882309F43DCF0E9400003ACF4B
:100EB0000E949A0708F481E00895E89409C097FB1E
:100EC0003EF490958095709561957F4F8F4F9F4F21
:100ED0009923A9F0F92F96E9BB279395F695879565
:100EE00077956795B795F111F8CFFAF4BB0F11F428
:100EF00060FF1BC06F5F7F4F8F4F9F4F16C08823CF
:100F000011F096E911C0772321F09EE8872F762F04
:100F100005C0662371F096E8862F70E060E02AF045
:100F20009A95660F771F881FDAF7880F9695879531
:100F300097F90895990F0008550FAA0BE0E8FEEF06
:100F400016161706E807F907C0F012161306E4078D
:100F5000F50798F0621B730B840B950B39F40A2686
:100F600061F0232B242B252B21F408950A2609F464
:100F7000A140A6958FEF811D811D08950E94D10784
:100F80000C9442080E94340838F00E943B0820F07C
:100F9000952311F00C942B080C94310811240C9417
:100FA00076080E94530870F3959FC1F3950F50E0A7
:100FB000551F629FF001729FBB27F00DB11D639F0B
:100FC000AA27F00DB11DAA1F649F6627B00DA11DB1
:100FD000661F829F2227B00DA11D621F739FB00D57
:100FE000A11D621F839FA00D611D221F749F3327C7
:100FF000A00D611D231F849F600D211D822F762F60
:101000006A2F11249F5750409AF0F1F088234AF03C
:10101000EE0FFF1FBB1F661F771F881F91505040A8
:10102000A9F79E3F510580F00C942B080C9476088C
:101030005F3FE4F3983ED4F3869577956795B7952F
:10104000F795E7959F5FC1F7FE2B880F911D969549
:10105000879597F9089597F99F6780E870E060E0B9
:1010600008959FEF80EC089500240A941616170641
:1010700018060906089500240A9412161306140689
:1010800005060895092E0394000C11F4882352F0EC
:10109000BB0F40F4BF2B11F460FF04C06F5F7F4FA4
:1010A0008F4F9F4F089557FD9058440F551F59F08B
:1010B0005F3F71F04795880F97FB991F61F09F3F45
:1010C00079F087950895121613061406551FF2CF6E
:1010D0004695F1DF08C0161617061806991FF1CFBE
:1010E00086957105610508940895E894BB276627E5
:1010F0007727CB0197F90895052E97FB1EF40094EE
:101100000E94930857FD07D00E94A60807FC03D051
:101110004EF40C94930850954095309521953F4F8F
:101120004F4F5F4F089590958095709561957F4FD3
:101130008F4F9F4F08950E94C808A59F900DB49FA0
:10114000900DA49F800D911D11240895A1E21A2EE7
:10115000AA1BBB1BFD010DC0AA1FBB1FEE1FFF1F5B
:10116000A217B307E407F50720F0A21BB30BE40BAB
:10117000F50B661F771F881F991F1A9469F76095F2
:101180007095809590959B01AC01BD01CF010895AC
:10119000A29FB001B39FC001A39F700D811D1124B8
:1011A000911DB29F700D811D1124911D08955058FD
:1011B000BB27AA270E94EF080C9442080E9434081B
:1011C00038F00E943B0820F039F49F3F19F426F4D0
:1011D0000C9431080EF4E095E7FB0C942B08E92FF2
:1011E0000E94530858F3BA176207730784079507DC
:1011F00020F079F4A6F50C9475080EF4E0950B2E0A
:10120000BA2FA02D0B01B90190010C01CA01A00158
:101210001124FF27591B99F0593F50F4503E68F1B3
:101220001A16F040A22F232F342F4427585FF3CFF4
:10123000469537952795A795F0405395C9F77EF4C5
:101240001F16BA0B620B730B840BBAF09150A1F00E
:10125000FF0FBB1F661F771F881FC2F70EC0BA0F94
:10126000621F731F841F48F4879577956795B7951C
:10127000F7959E3F08F0B0CF9395880F08F0992717
:10128000EE0F9795879508950E9458090C9442088F
:101290000E943B0858F00E94340840F029F45F3F58
:1012A00029F00C942B0851110C9476080C943108F9
:1012B0000E94530868F39923B1F3552391F3951BCA
:1012C000550BBB27AA2762177307840738F09F5F67
:1012D0005F4F220F331F441FAA1FA9F335D00E2ED4
:1012E0003AF0E0E832D091505040E695001CCAF741
:1012F0002BD0FE2F29D0660F771F881FBB1F261704
:1013000037074807AB07B0E809F0BB0B802DBF01DA
:10131000FF2793585F4F3AF09E3F510578F00C94A9
:101320002B080C9476085F3FE4F3983ED4F386953F
:1013300077956795B795F7959F5FC9F7880F911DCA
:101340009695879597F90895E1E0660F771F881FB6
:10135000BB1F621773078407BA0720F0621B730B69
:10136000840BBA0BEE1F88F7E09508950E94BD0923
:101370006894B1110C94760808950E945B0888F077
:101380009F5798F0B92F9927B751B0F0E1F0660F49
:10139000771F881F991F1AF0BA95C9F714C0B1308A
:1013A00091F00E947508B1E008950C947508672FBC
:1013B000782F8827B85F39F0B93FCCF386957795B9
:1013C0006795B395D9F73EF49095809570956195A2
:1013D0007F4F8F4F9F4F08950E949A0708F48FEF19
:1013E0000895991B79E004C0991F961708F0961B81
:1013F000881F7A95C9F780950895EE0FFF1F059015
:10140000F491E02D0994F894FFCF000000002B0226
:0C1410008B01B8017802E901C701DB0183
:107E0000112484B714BE81FFF0D085E080938100F7
:107E100082E08093C00088E18093C10086E0809377
:107E2000C20080E18093C4008EE0C9D0259A86E02C
:107E300020E33CEF91E0309385002093840096BBD3
:107E4000B09BFECF1D9AA8958150A9F7CC24DD24C4
:107E500088248394B5E0AB2EA1E19A2EF3E0BF2EE7
:107E6000A2D0813461F49FD0082FAFD0023811F036
:107E7000013811F484E001C083E08DD089C08234E0
:107E800011F484E103C0853419F485E0A6D080C0E4
:107E9000853579F488D0E82EFF2485D0082F10E0AE
:107EA000102F00270E291F29000F111F8ED06801E7
:107EB0006FC0863521F484E090D080E0DECF843638
:107EC00009F040C070D06FD0082F6DD080E0C81688
:107ED00080E7D80618F4F601B7BEE895C0E0D1E017
:107EE00062D089930C17E1F7F0E0CF16F0E7DF06D8
:107EF00018F0F601B7BEE89568D007B600FCFDCFD4
:107F0000A601A0E0B1E02C9130E011968C91119780
:107F100090E0982F8827822B932B1296FA010C0160
:107F200087BEE89511244E5F5F4FF1E0A038BF0790
:107F300051F7F601A7BEE89507B600FCFDCF97BE46
:107F4000E89526C08437B1F42ED02DD0F82E2BD052
:107F50003CD0F601EF2C8F010F5F1F4F84911BD097
:107F6000EA94F801C1F70894C11CD11CFA94CF0C13
:107F7000D11C0EC0853739F428D08EE10CD085E9AC
:107F80000AD08FE07ACF813511F488E018D01DD067
:107F900080E101D065CF982F8091C00085FFFCCF94
:107FA0009093C60008958091C00087FFFCCF809118
:107FB000C00084FD01C0A8958091C6000895E0E648
:107FC000F0E098E1908380830895EDDF803219F02E
:107FD00088E0F5DFFFCF84E1DECF1F93182FE3DFCA
:107FE0001150E9F7F2DF1F91089580E0E8DFEE27F6
:047FF000FF270994CA
:027FFE00040479
:00000001FF
