:100000000C9462000C948A000C948A000C948A0070
:100010000C948A000C948A000C948A000C948A0038
:100020000C948A000C948A000C948A000C94CC04E2
:100030000C948A000C948A000C948A000C948A0018
:100040000C942A040C948A000C949A040C94740462
:100050000C948A000C948A000C948A000C948A00F8
:100060000C948A000C948A000000000024002700F1
:100070002A0000000000250028002B0000000000DE
:1000800023002600290004040404040404040202DA
:100090000202020203030303030301020408102007
:1000A0004080010204081020010204081020000012
:1000B0000008000201000003040700000000000027
:1000C0000000CD0511241FBECFEFD8E0DEBFCDBFAD
:1000D00011E0A0E0B1E0E6E1F7E102C005900D9289
:1000E000A035B107D9F722E0A0E5B1E001C01D922B
:1000F000A132B207E1F710E0C2E6D0E004C02197D8
:10010000FE010E94830BC136D107C9F70E942A065F
:100110000C94890B0C940000833081F028F481301A
:1001200099F08230A9F008958730A9F08830C9F09D
:100130008430B1F4809180008F7D03C08091800075
:100140008F7780938000089584B58F7784BD08955C
:1001500084B58F7DFBCF8091B0008F778093B00006
:1001600008958091B0008F7DF9CFCF93DF93282F32
:1001700030E0F901E255FF4F8491F901E656FF4F57
:10018000D491F901EA57FF4FC491CC23A1F081111A
:100190000E948C00EC2FF0E0EE0FFF1FE458FF4FA1
:1001A000A591B491EC91ED2381E090E009F480E019
:1001B000DF91CF91089580E090E0FACF1F93CF9325
:1001C000DF93282F30E0F901E255FF4F8491F901C8
:1001D000E656FF4FD491F901EA57FF4FC491CC2363
:1001E000A9F0162F81110E948C00EC2FF0E0EE0F89
:1001F000FF1FEE58FF4FA591B4918FB7F894EC9183
:10020000111108C0D095DE23DC938FBFDF91CF9111
:100210001F910895DE2BF8CFCF93DF9390E0FC0180
:10022000E656FF4F24918A579F4FFC018491882303
:10023000D1F090E0880F991FFC01E859FF4FA5917C
:10024000B491FC01EE58FF4FC591D49161110EC0DD
:100250009FB7F8948C91E22FE0958E238C932881A0
:10026000E223E8839FBFDF91CF9108958FB7F89481
:10027000EC91E22BEC938FBFF6CF1F93CF93DF93DC
:10028000182FEB0161E00E940C01209739F460E027
:10029000812FDF91CF911F910C94DE00CF3FD105CC
:1002A00011F461E0F5CFE12FF0E0E255FF4FE4916A
:1002B000E33031F140F4E130B1F0E230E1F0C03848
:1002C000D1057CF7E4CFE73029F1E83059F1E4308B
:1002D000B1F780918000806280938000D0938B0082
:1002E000C0938A0004C084B5806884BDC7BDDF9117
:1002F000CF911F91089584B5806284BDC8BDF7CFAA
:1003000080918000806880938000D0938900C093A2
:100310008800EDCF8091B00080688093B000C093DA
:10032000B300E5CF8091B00080628093B000C093AD
:10033000B400DDCFCF93DF93EC0164E670E085E09D
:100340000E943D0161E087E00E94DE0060E084E001
:100350000E94DE00BE0186E00E943D0161E083E074
:100360000E94DE0060E082E0DF91CF910C94DE001D
:100370003FB7F8948091580190915901A0915A018A
:10038000B0915B0126B5A89B05C02F3F19F00196DF
:10039000A11DB11D3FBFBA2FA92F982F8827BC01DF
:1003A000CD01620F711D811D911D42E0660F771F07
:1003B000881F991F4A95D1F708958F929F92AF9207
:1003C000BF92CF92DF92EF92FF924B015C010E94AD
:1003D000B8016B017C010E94B8016C197D098E097E
:1003E0009F09683E734081059105A8F321E0821AB8
:1003F0009108A108B10888EEC80E83E0D81EE11C60
:10040000F11C81149104A104B10429F7FF90EF902D
:10041000DF90CF90BF90AF909F908F900895AF9254
:10042000BF92CF92DF92EF92FF920F931F93CF93E1
:10043000DF936C017B018B01040F151FEB015E0143
:10044000AE18BF08C017D10759F06991D601ED91D8
:10045000FC910190F081E02DC6010995892B79F777
:10046000C501DF91CF911F910F91FF90EF90DF9029
:10047000CF90BF90AF900895FC01538D448D252FF0
:1004800030E0842F90E0821B930B541710F0CF962E
:10049000089501970895FC01918D828D981761F060
:1004A000A28DAE0FBF2FB11D5D968C91928D9F5F77
:1004B0009F73928F90E008958FEF9FEF0895FC0156
:1004C000918D828D981731F0828DE80FF11D858D09
:1004D00090E008958FEF9FEF0895FC01918D228D9C
:1004E000892F90E0805C9F4F821B91098F73992721
:1004F00008958CE591E00E946D0221E0892B09F4BA
:1005000020E0822F089580E090E0892B29F00E945E
:10051000790281110C9400000895FC01A48DA80FAC
:10052000B92FB11DA35ABF4F2C91848D90E0019635
:100530008F739927848FA689B7892C93A089B18955
:100540008C91837080648C93938D848D981306C0F6
:100550000288F389E02D80818F7D80830895EF925A
:10056000FF920F931F93CF93DF93EC0181E0888F6D
:100570009B8D8C8D98131AC0E889F989808185FF3D
:1005800015C09FB7F894EE89FF896083E889F989DF
:1005900080818370806480839FBF81E090E0DF91E1
:1005A000CF911F910F91FF90EF900895F62E0B8D34
:1005B00010E00F5F1F4F0F731127E02E8C8D8E11EF
:1005C0000CC00FB607FCFACFE889F989808185FF56
:1005D000F5CFCE010E948D02F1CFEB8DEC0FFD2FF8
:1005E000F11DE35AFF4FF0829FB7F8940B8FEA8911
:1005F000FB8980818062CFCFCF93DF93EC01888D20
:100600008823B9F0AA89BB89E889F9898C9185FD8D
:1006100003C0808186FD0DC00FB607FCF7CF8C911B
:1006200085FFF2CF808185FFEDCFCE010E948D0244
:10063000E9CFDF91CF91089570E060E085E00E94FE
:100640003D0160E087E00E94DE0060E084E00E94FF
:10065000DE0070E060E086E00E943D0160E083E043
:100660000E94DE0060E082E00E94DE0068EC70E044
:1006700080E090E00C94DD01CF93DF93EB01BC01AF
:10068000660F771F85E00E943D0160E087E00E94D1
:10069000DE0061E084E00E94DE00BE01660F771F8D
:1006A00086E00E943D0160E083E00E94DE0061E0A0
:1006B00082E0DF91CF910C94DE00CF93DF93FC01B9
:1006C00001900020E9F73197AF01481B590BBC019D
:1006D0008CE591E00E940F02EC0142E050E063E102
:1006E00071E08CE591E00E940F028C0F9D1FDF915D
:1006F000CF9108952F923F924F925F926F927F9287
:100700009F92AF92BF92CF92DF92EF92FF920F93A0
:100710001F93CF93DF9300D000D0CDB7DEB7982ED4
:1007200083E090E09C838B83412C512C32012FE09D
:10073000C22ED12C33E2A32EB12CFB01E656FF4F83
:10074000FA83E983CB018A579F4F1C0143ECE42EC7
:10075000F12C60E0892D0E94DE00C6010197F1F7BF
:1007600061E0892D0E94DE00C5010197F1F760E08C
:10077000892D0E94DE00E981FA816491F101849162
:10078000E82FF0E0EE0FFF1FE458FF4F85919491A2
:1007900000E412E42FE030E0462F0E948805611546
:1007A00071058105910529F06F5F7F4F8F4F9F4F36
:1007B0009F700E94550A20E030E040E05FE30E9415
:1007C0000A0B2DEC3CEC48EE51E40E94AB099B0176
:1007D000AC01C301B2010E943A092B013C01C701DF
:1007E0000197F1F78B819C8101979C838B83892BE7
:1007F00009F0AFCF20E030E040E450E4C301B201A3
:100800000E94AB096B017C0120E030E048EC51E430
:100810000E94050B181634F4C12CD12C88ECE82E5C
:1008200081E4F82EC701B6010F900F900F900F9042
:10083000DF91CF911F910F91FF90EF90DF90CF90BC
:10084000BF90AF909F907F906F905F904F903F9040
:100850002F9008951F920F920FB60F9211242F938D
:100860003F938F939F93AF93BF9380915401909147
:100870005501A0915601B09157013091530123E0E9
:10088000230F2D3758F50196A11DB11D209353015B
:100890008093540190935501A0935601B093570152
:1008A0008091580190915901A0915A01B0915B013A
:1008B0000196A11DB11D8093580190935901A093F9
:1008C0005A01B0935B01BF91AF919F918F913F917E
:1008D0002F910F900FBE0F901F90189526E8230FB1
:1008E0000296A11DB11DD2CF1F920F920FB60F928B
:1008F00011242F933F934F935F936F937F938F9325
:100900009F93AF93BF93EF93FF938CE591E00E9489
:100910008D02FF91EF91BF91AF919F918F917F9148
:100920006F915F914F913F912F910F900FBE0F905C
:100930001F9018951F920F920FB60F9211242F93AC
:100940008F939F93EF93FF93E0916C01F0916D0172
:100950008081E0917201F091730182FD1BC0908152
:10096000809175018F5F8F7320917601821741F01E
:10097000E0917501F0E0E45AFE4F958F8093750188
:10098000FF91EF919F918F912F910F900FBE0F903C
:100990001F9018958081F4CF1F920F920FB60F927F
:1009A00011242F933F934F935F936F937F938F9374
:1009B0009F93AF93BF93CF93DF93EF93FF93809178
:1009C0005001C0911D02D0E087FF24C01092850025
:1009D00010928400809150018F5F8093500180912C
:1009E0005001082E000C990B8C179D0724F4809160
:1009F00050018C30C4F18091840090918500049660
:100A000080349C4908F47AC08091840090918500DC
:100A1000049676C080915001082E000C990B8C171B
:100A20009D07C4F6E09150018E2FEE0F990BFC014B
:100A3000EE0FFF1FE80FF91FE750FE4F808186FF82
:100A4000C9CFE09150018E2FEE0F990BFC01EE0FF4
:100A5000FF1FE80FF91FE750FE4F808160E08F73A2
:100A60000E94DE00B7CF2091840030918500E09194
:100A700050018E2FEE0F990BFC01EE0FFF1FE80FB8
:100A8000F91FE750FE4F81819281820F931F90934F
:100A9000890080938800E09150018E2FEE0F990B12
:100AA000FC01EE0FFF1FE80FF91FE750FE4F80819A
:100AB00086FF11C0E09150018E2FEE0F990BFC01C3
:100AC000EE0FFF1FE80FF91FE750FE4F808161E036
:100AD0008F730E94DE00FF91EF91DF91CF91BF9164
:100AE000AF919F918F917F916F915F914F913F91C6
:100AF0002F910F900FBE0F901F90189580E49CE9E6
:100B000090938900809388008FEF80935001E3CF0A
:100B1000CF92DF92EF92FF920F931F93E82FF92F5E
:100B200005C0015011092109310961F19081962315
:100B30009417B9F305C0015011092109310911F1C8
:100B4000908196239413F7CFC12CD12CE12CF12C5A
:100B50000AC08FEFC81AD80AE80AF80A0C151D0552
:100B60002E053F0579F080818623841791F36C2D43
:100B70007D2D8E2D9F2D1F910F91FF90EF90DF9077
:100B8000CF90089560E070E080E090E01F910F91B9
:100B9000FF90EF90DF90CF90089510925F01109238
:100BA0005E0188EE93E0A0E0B0E080936001909356
:100BB0006101A0936201B093630185E091E090939D
:100BC0005D0180935C0185EC90E0909369018093D6
:100BD000680184EC90E090936B0180936A0180EC53
:100BE00090E090936D0180936C0181EC90E0909384
:100BF0006F0180936E0182EC90E09093710180937D
:100C0000700186EC90E090937301809372011092D2
:100C100075011092760110927701109278018091FF
:100C20001D028C3098F491E0980F90931D028093F0
:100C30001E0290E0FC01EE0FFF1FE80FF91FE750C6
:100C4000FE4F88EB9BE09283818308958FEF809322
:100C50001E020895789484B5826084BD84B5816055
:100C600084BD85B5826085BD85B5816085BD809177
:100C70006E00816080936E001092810080918100EF
:100C800082608093810080918100816080938100E7
:100C9000809180008160809380008091B1008460A9
:100CA0008093B1008091B00081608093B00080910A
:100CB0007A00846080937A0080917A0082608093C9
:100CC0007A0080917A00816080937A0080917A0026
:100CD000806880937A001092C10061E087E00E94F2
:100CE0000C0161E084E00E940C0161E083E00E945D
:100CF0000C0161E082E00E940C0161E085E00E944D
:100D00000C0161E086E00E940C0160E08EE00E9430
:100D10000C0160E08FE00E940C0160E080E10E9425
:100D20000C0180911E028C3008F051C061E089E016
:100D30000E940C0180911E02282F30E0F901EE0F75
:100D4000FF1FE20FF31FE750FE4F9081907C9960E8
:100D5000908310921F02109220022CE0622F0E94BA
:100D6000770B829FB001112430E020E0AB01420FED
:100D7000531FFA01EE0FFF1FE40FF51FE750FE4F60
:100D8000908196FD16C02F5F3F4F2C30310571F7D3
:100D900081110FC01092800082E080938100109238
:100DA000850010928400B19A80916F0082608093D8
:100DB0006F00E0911E028E2F90E0FC01EE0FFF1FEE
:100DC000E80FF91FE750FE4F808180648083F09028
:100DD0001E028091200208E512E0081B110987FD20
:100DE0001395000F111F000F111F80911F02C8E8FB
:100DF000D0E0C81BD10987FDD395CC0FDD1FCC0FE8
:100E0000DD1F4E010D2E000CAA08BB089801012E13
:100E1000000C440B550B281939094A095B09AAE54E
:100E2000B0E00E94FD0824EB30E040E050E00E947A
:100E3000DE08820E931EA41EB51E2BE02F15C8F0EF
:100E40008C169D062CF0E801801691060CF4E40146
:100E50002297CC0FDD1F2FB7F8948F2D90E0FC0167
:100E6000EE0FFF1FE80FF91FE750FE4FD283C1833B
:100E70002FBF61E08CE00E940C0160E08DE00E94D9
:100E80000C0161E08AE00E940C0160E08BE00E94AE
:100E90000C01E0916C01F0916D0182E08083E091A2
:100EA0006801F09169011082E0916A01F0916B0193
:100EB0008FEC808310927401E0917001F0917101C8
:100EC00086E08083E0916E01F0916F018081806106
:100ED0008083E0916E01F0916F0180818860808352
:100EE000E0916E01F0916F01808180688083E091D4
:100EF0006E01F0916F0180818F7D808360ED77E0DE
:100F000080E090E00E94DD0180E0882E80E0982E55
:100F10003324339480910001882309F49EC08EE02D
:100F20000E94B5008C018FE00E94B5007C0180E139
:100F30000E94B500EC016BE070E08AE090E00E9456
:100F40007A030130110509F044C021E0E216F104F2
:100F500009F03FC0C130D10509F01DC10E941D0A32
:100F600065317105810591050CF018C186E191E0AC
:100F70000E945D0310920001309252018CE591E0D5
:100F80000E946D0218161906C4F48CE591E00E94C7
:100F90004B028F3609F4F8C0873709F4F0C08C365D
:100FA00061F430920001109252011092510168EEEA
:100FB00073E080E090E00E94DD018114910409F467
:100FC000A9CF0E947902882309F4A4CF0E940000CF
:100FD000A1CFE114F10441F5219719F0012B09F09B
:100FE000DDC068E770E086E00E943D0161E083E0DB
:100FF0000E94DE0060E082E00E94DE006EE170E0B0
:1010000085E00E943D0161E087E00E94DE0060E033
:1010100084E00E94DE0064E670E080E090E00E94E0
:10102000DD010E941C03AACFCD2B09F0B7C0EA94C2
:10103000EF2819F0012B09F0B1C06EE170E086E0F5
:101040000E943D0161E083E00E94DE0060E082E0FA
:101050000E94DE0068E770E0D3CF809152018823C0
:1010600009F483C06BE070E08AE090E00E947A03AC
:101070002B013C016DE070E08CE090E00E947A036F
:101080006B017C018EE00E94B500EC018FE00E94B4
:10109000B5005C0180E10E94B5008C018EEB90E010
:1010A0000E949A0120E030E040EA50E4C701B60116
:1010B0000E94A60987FF2CC066E470E086E490E0F9
:1010C0000E943C036CE271E080E090E00E94DD0150
:1010D00060EF70E085E00E943D0160E087E00E94E3
:1010E000DE0061E084E00E94DE0060EF70E086E0F8
:1010F0000E943D0161E083E00E94DE0060E082E04A
:101100000E94DE0062E370E080E090E00E94DD017A
:1011100020E030E040EA51E4C301B2010E94050B37
:10112000181604F520E030E040E051E4C701B601B4
:101130000E94050B1816B4F4AB28A1F4CD2B09F0CE
:101140001DCF82E391E00E945D0310925201309224
:1011500051010E941C0364EF71E080E090E00E9466
:10116000DD010CCF012B51F309CF80915101882370
:1011700009F404CF81E790E00E949A01FFCE10921B
:1011800000013092520111CF1092000110925201D1
:10119000309251010CCFCD2B09F44FCF6AE570E0AE
:1011A00086E00E943D0161E083E00E94DE0060E095
:1011B00082E00E94DE006AE570E022CF052E97FBF8
:1011C0001EF400940E94F50857FD07D00E940809FC
:1011D00007FC03D04EF40C94F508509540953095DB
:1011E00021953F4F4F4F5F4F089590958095709593
:1011F00061957F4F8F4F9F4F08950E942A09A59FA9
:10120000900DB49F900DA49F800D911D1124089501
:10121000A1E21A2EAA1BBB1BFD010DC0AA1FBB1FFA
:10122000EE1FFF1FA217B307E407F50720F0A21B6C
:10123000B30BE40BF50B661F771F881F991F1A94D9
:1012400069F760957095809590959B01AC01BD0103
:10125000CF010895A29FB001B39FC001A39F700D5D
:10126000811D1124911DB29F700D811D1124911DAE
:1012700008955058BB27AA270E9451090C94CB0A05
:101280000E94BD0A38F00E94C40A20F039F49F3F42
:1012900019F426F40C94BA0A0EF4E095E7FB0C94CA
:1012A000B40AE92F0E94DC0A58F3BA1762077307E1
:1012B0008407950720F079F4A6F50C94FE0A0EF445
:1012C000E0950B2EBA2FA02D0B01B90190010C0156
:1012D000CA01A0011124FF27591B99F0593F50F46E
:1012E000503E68F11A16F040A22F232F342F4427C6
:1012F000585FF3CF469537952795A795F0405395BE
:10130000C9F77EF41F16BA0B620B730B840BBAF08D
:101310009150A1F0FF0FBB1F661F771F881FC2F7F8
:101320000EC0BA0F621F731F841F48F4879577950C
:101330006795B795F7959E3F08F0B0CF9395880FC6
:1013400008F09927EE0F9795879508950E94900AC7
:1013500008F481E008950E94BF090C94CB0A0E9412
:10136000C40A58F00E94BD0A40F029F45F3F29F0FA
:101370000C94B40A51110C94FF0A0C94BA0A0E94FE
:10138000DC0A68F39923B1F3552391F3951B550BB0
:10139000BB27AA2762177307840738F09F5F5F4F48
:1013A000220F331F441FAA1FA9F335D00E2E3AF087
:1013B000E0E832D091505040E695001CCAF72BD09F
:1013C000FE2F29D0660F771F881FBB1F26173707F0
:1013D0004807AB07B0E809F0BB0B802DBF01FF2722
:1013E00093585F4F3AF09E3F510578F00C94B40A41
:1013F0000C94FF0A5F3FE4F3983ED4F3869577950B
:101400006795B795F7959F5FC9F7880F911D9695DA
:10141000879597F90895E1E0660F771F881FBB1F36
:10142000621773078407BA0720F0621B730B840BE3
:10143000BA0BEE1F88F7E09508950E94240A68947D
:10144000B1110C94FF0A08950E94E40A88F09F5796
:1014500098F0B92F9927B751B0F0E1F0660F771FD8
:10146000881F991F1AF0BA95C9F714C0B13091F0CE
:101470000E94FE0AB1E008950C94FE0A672F782FAF
:101480008827B85F39F0B93FCCF386957795679593
:10149000B395D9F73EF490958095709561957F4FFF
:1014A0008F4F9F4F0895E89409C097FB3EF49095A5
:1014B0008095709561957F4F8F4F9F4F9923A9F02D
:1014C000F92F96E9BB279395F695879577956795BC
:1014D000B795F111F8CFFAF4BB0F11F460FF1BC000
:1014E0006F5F7F4F8F4F9F4F16C0882311F096E993
:1014F00011C0772321F09EE8872F762F05C0662341
:1015000071F096E8862F70E060E02AF09A95660FF9
:10151000771F881FDAF7880F9695879597F90895B2
:10152000990F0008550FAA0BE0E8FEEF16161706F4
:10153000E807F907C0F012161306E407F50798F05C
:10154000621B730B840B950B39F40A2661F0232B75
:10155000242B252B21F408950A2609F4A140A695F1
:101560008FEF811D811D089597F99F6780E870E0D6
:1015700060E008959FEF80EC089500240A94161609
:10158000170618060906089500240A941216130671
:10159000140605060895092E0394000C11F48823FF
:1015A00052F0BB0F40F4BF2B11F460FF04C06F5F1B
:1015B0007F4F8F4F9F4F089557FD9058440F551FF1
:1015C00059F05F3F71F04795880F97FB991F61F0C5
:1015D0009F3F79F087950895121613061406551F3C
:1015E000F2CF4695F1DF08C0161617061806991FA8
:1015F000F1CF86957105610508940895E894BB279D
:1016000066277727CB0197F908950E94900A08F47E
:101610008FEF08950E941D0B0C94CB0A0E94BD0A07
:1016200038F00E94C40A20F0952311F00C94B40AFB
:101630000C94BA0A11240C94FF0A0E94DC0A70F37D
:10164000959FC1F3950F50E0551F629FF001729F67
:10165000BB27F00DB11D639FAA27F00DB11DAA1F76
:10166000649F6627B00DA11D661F829F2227B00DC3
:10167000A11D621F739FB00DA11D621F839FA00D4E
:10168000611D221F749F3327A00D611D231F849F9E
:10169000600D211D822F762F6A2F11249F575040F5
:1016A0009AF0F1F088234AF0EE0FFF1FBB1F661F70
:1016B000771F881F91505040A9F79E3F510580F039
:1016C0000C94B40A0C94FF0A5F3FE4F3983ED4F301
:1016D000869577956795B795F795E7959F5FC1F7DD
:1016E000FE2B880F911D9695879597F90895991B64
:1016F00079E004C0991F961708F0961B881F7A9509
:10170000C9F780950895EE0FFF1F0590F491E02D25
:061710000994F894FFCFDC
:101716000100000000AF020F023C02FC026D024B0A
:10172600025F020D0A00537769746368696E672069
:10173600746F2077616C6C20666F6C6C6F77696E66
:101746006700537769746368696E6720746F206FEA
:10175600626A65637420646574656374696F6E009C
:00000001FF
