:020000040000FA
:100000000C9462000C948A000C948A000C948A0070
:100010000C948A000C948A000C948A000C948A0038
:100020000C948A000C948A000C948A000C948A0028
:100030000C948A000C948A000C948A000C948A0018
:100040000C94D7020C948A000C9447030C9421035F
:100050000C948A000C948A000C948A000C948A00F8
:100060000C948A000C948A000000000023002600F3
:10007000290000000000240027002A0000000000E2
:10008000250028002B0004040404040404040202D4
:100090000202020203030303030301020408102007
:1000A0004080010204081020010204081020000012
:1000B0000008000201000003040700000000000027
:1000C00000003D0611241FBECFEFD8E0DEBFCDBF3C
:1000D00011E0A0E0B1E0EEEAF1E102C005900D927E
:1000E000A834B107D9F721E0A8E4B1E001C01D921E
:1000F000AE3EB207E1F710E0C2E6D0E004C02197BF
:10010000FE010E94CF08C136D107C9F70E94BE0385
:100110000C94D5080C94000090E0FC01E255FF4FD0
:100120002491FC01E656FF4F3491FC01EA57FF4F42
:10013000E491EE23C9F0222339F0233001F1A8F431
:10014000213019F1223029F1F0E0EE0FFF1FE458C1
:10015000FF4FA591B4918FB7F894EC91611126C02F
:1001600030953E233C938FBF08952730A9F0283067
:10017000C9F0243049F7809180008F7D03C08091C1
:1001800080008F7780938000DFCF84B58F7784BD28
:10019000DBCF84B58F7DFBCF8091B0008F778093CC
:1001A000B000D2CF8091B0008F7DF9CF3E2BDACF57
:1001B000CF93DF9390E0FC01E656FF4F24918A57DE
:1001C0009F4FFC0184918823D1F090E0880F991F04
:1001D000FC01EE58FF4FA591B491FC01E458FF4F8C
:1001E000C591D49161110EC09FB7F8948C91E22F04
:1001F000E0958E238C932881E223E8839FBFDF91D3
:10020000CF9108958FB7F894EC91E22BEC938FBFC8
:10021000F6CF3FB7F89480914D0190914E01A09197
:100220004F01B091500126B5A89B05C02F3F19F092
:100230000196A11DB11D3FBFBA2FA92F982F882766
:10024000BC01CD01620F711D811D911D42E0660F41
:10025000771F881F991F4A95D1F70895AF92BF92D3
:10026000CF92DF92EF92FF920F931F93CF93DF9382
:100270006C017B018B01040F151FEB015E01AE18B1
:10028000BF08C017D10759F06991D601ED91FC91D3
:100290000190F081E02DC6010995892B79F7C50100
:1002A000DF91CF911F910F91FF90EF90DF90CF9052
:1002B000BF90AF900895FC01538D448D252F30E001
:1002C000842F90E0821B930B541710F0CF96089563
:1002D00001970895FC01918D828D981761F0A28D90
:1002E000AE0FBF2FB11D5D968C91928D9F5F9F7356
:1002F000928F90E008958FEF9FEF0895FC01918D0C
:10030000828D981731F0828DE80FF11D858D90E078
:1003100008958FEF9FEF0895FC01918D228D892F15
:1003200090E0805C9F4F821B91098F7399270895FD
:1003300081E591E00E948C0121E0892B09F420E005
:10034000822F089580E090E0892B29F00E94980187
:1003500081110C9400000895FC01A48DA80FB92F01
:10036000B11DA35ABF4F2C91848D90E001968F73DD
:100370009927848FA689B7892C93A089B1898C91FC
:10038000837080648C93938D848D981306C002884B
:10039000F389E02D80818F7D80830895EF92FF9215
:1003A0000F931F93CF93DF93EC0181E0888F9B8D98
:1003B0008C8D98131AC0E889F989808185FF15C052
:1003C0009FB7F894EE89FF896083E889F989808175
:1003D0008370806480839FBF81E090E0DF91CF9144
:1003E0001F910F91FF90EF900895F62E0B8D10E066
:1003F0000F5F1F4F0F731127E02E8C8D8E110CC0D5
:100400000FB607FCFACFE889F989808185FFF5CF1F
:10041000CE010E94AC01F1CFEB8DEC0FFD2FF11D51
:10042000E35AFF4FF0829FB7F8940B8FEA89FB895C
:1004300080818062CFCFCF93DF93EC01888D8823BA
:10044000B9F0AA89BB89E889F9898C9185FD03C037
:10045000808186FD0DC00FB607FCF7CF8C9185FF1C
:10046000F2CF808185FFEDCFCE010E94AC01E9CFB4
:10047000DF91CF910895FC0101900020E9F73197B9
:10048000AF01481B590BBC0181E591E00C942E0192
:100490008F929F92AF92BF920F931F93CF93DF9350
:1004A000CDB7DEB7A1970FB6F894DEBF0FBECDBFB4
:1004B00019A2423008F44AE08E010F5D1F4F842ECE
:1004C000912CB12CA12CA50194010E94AD08E62F1E
:1004D000B901CA01EA30F4F4E05DD801EE938D0170
:1004E000232B242B252B79F790E080E0109719F02F
:1004F000CD010E943B02A1960FB6F894DEBF0FBE5D
:10050000CDBFDF91CF911F910F91BF90AF909F9082
:100510008F900895E95CE1CFE82FF0E0E255FF4FBE
:10052000E491E33031F138F4E130B9F0E230D9F060
:1005300060E00C948C00E73041F1E83079F1E43070
:10054000B9F78091800080628093800084E690E01B
:1005500090938B0080938A00089584B5806884BD51
:1005600084E687BD089584B5806284BD84E688BD35
:1005700008958091800080688093800084E690E0F8
:10058000909389008093880008958091B0008068DE
:100590008093B00084E68093B30008958091B0000A
:1005A00080628093B00084E68093B40008951F9227
:1005B0000F920FB60F9211242F933F938F939F9317
:1005C000AF93BF938091490190914A01A0914B0153
:1005D000B0914C013091480123E0230F2D3758F59D
:1005E0000196A11DB11D209348018093490190936C
:1005F0004A01A0934B01B0934C0180914D01909121
:100600004E01A0914F01B09150010196A11DB11D65
:1006100080934D0190934E01A0934F01B0935001F0
:10062000BF91AF919F918F913F912F910F900FBEEE
:100630000F901F90189526E8230F0296A11DB11D5B
:10064000D2CF1F920F920FB60F9211242F933F9388
:100650004F935F936F937F938F939F93AF93BF93CA
:10066000EF93FF9381E591E00E94AC01FF91EF9140
:10067000BF91AF919F918F917F916F915F914F91BA
:100680003F912F910F900FBE0F901F9018951F92C2
:100690000F920FB60F9211242F938F939F93EF9386
:1006A000FF93E0916101F09162018081E091670127
:1006B000F091680182FD1BC0908180916A018F5F7B
:1006C0008F7320916B01821741F0E0916A01F0E095
:1006D000EF5AFE4F958F80936A01FF91EF919F91A2
:1006E0008F912F910F900FBE0F901F9018958081C2
:1006F000F4CFCF92DF92EF92FF920F931F93E82FE8
:10070000F92F05C0015011092109310961F19081CA
:1007100096239417B9F305C0015011092109310935
:1007200011F1908196239413F7CFC12CD12CE12C99
:10073000F12C0AC08FEFC81AD80AE80AF80A0C157B
:100740001D052E053F0579F080818623841791F3DE
:100750006C2D7D2D8E2D9F2D1F910F91FF90EF9071
:10076000DF90CF90089560E070E080E090E01F910E
:100770000F91FF90EF90DF90CF900895CF93DF938C
:10078000CDB7DEB728970FB6F894DEBF0FBECDBF4A
:10079000789484B5826084BD84B5816084BD85B55C
:1007A000826085BD85B5816085BD80916E00816068
:1007B00080936E001092810080918100826080930E
:1007C0008100809181008160809381008091800010
:1007D0008160809380008091B10084608093B1003B
:1007E0008091B00081608093B00080917A00846035
:1007F00080937A0080917A00826080937A00809161
:100800007A00816080937A0080917A00806880937A
:100810007A001092C10061E087E00E94D80061E098
:1008200084E00E94D80061E083E00E94D80061E08B
:1008300082E00E94D80061E085E00E94D80061E07B
:1008400086E00E94D80061E08CE00E94D80060E061
:100850008DE00E94D80061E08AE00E94D80060E04C
:100860008BE00E94D800E0916101F091620182E08A
:100870008083E0915D01F0915E011082E0915F0163
:10088000F09160018FEC808310926901E091650125
:10089000F091660186E08083E0916301F09164014C
:1008A000808180618083E0916301F09164018081A7
:1008B00088608083E0916301F091640180818068A9
:1008C0008083E0916301F091640180818F7D80835A
:1008D00053E2252E312C60E08AE00E948C008FE0EC
:1008E00090E00197F1F761E08AE00E948C00C1017D
:1008F0000197F1F760E08AE00E948C00E5EAF0E001
:100900006491E1E9F0E08491E82FF0E0EE0FFF1F41
:10091000E859FF4F8591949100E412E42FE030E014
:10092000462F0E947903611571058105910529F013
:100930006F5F7F4F8F4F9F4F9F70959587957795EE
:1009400067950E9486072DEC3CEC48EE51E40E942E
:10095000DC066B017C0120E030E048EC51E40E94B1
:10096000360818160CF4EEC020E030E040EA50E4FF
:10097000C701B6010E94D70687FF06C0C12CD12C43
:1009800020EAE22E20E4F22E20E030E040E751E4BD
:10099000C701B6010E946A060E944E07072E000C8E
:1009A000880B990B0E94860720E030E040E05FE36F
:1009B0000E943B080E944E07072E000C880B990BE3
:1009C0000E9486076B017C014B015C01AC019B011D
:1009D00060E070E08CE892E40E946A060E944E0794
:1009E00069837A838B839C8320E030E04CE852E477
:1009F000C701B6010E946B060E944E076D837E837D
:100A00008F83988782E191E00E943B02A7019601C3
:100A1000C701B6010E94A808882309F49AC08BE197
:100A200091E00E943B0261E085E00E94D80085E0F1
:100A30000E948C0261E087E00E948C0060E084E00C
:100A40000E948C0061E086E00E94D80086E00E944F
:100A50008C0261E083E00E948C0060E082E00E94F2
:100A60008C0087E291E00E943B0289819A816C01AF
:100A7000990FEE08FF084AE0C701B601F7FE0DC066
:100A80006DE281E591E00E94CE0166277727CB01D8
:100A90006C197D098E099F094AE00E94480285E38E
:100AA00091E00E943B02ED81FE816F01FF0FEE0895
:100AB000FF084AE0C701B601F7FE0DC06DE281E50F
:100AC00091E00E94CE0166277727CB016C197D0942
:100AD0008E099F094AE00E94480284E491E00E9446
:100AE0003B020E9409014B015C018EE1C82ED12C12
:100AF000E12CF12C0E940901681979098A099B09E6
:100B0000683E734081059105A8F3F1E0CF1AD10842
:100B1000E108F10828EE820E23E0921EA11CB11C10
:100B2000C114D104E104F10429F780E090E0892B9D
:100B300009F4D1CE0E949801882309F4CCCE0E94FA
:100B40000000C9CEC12CD12C98ECE92E91E4F92EED
:100B50001BCF26013701E89477F82FEF3FEF4FE7DF
:100B60005FE7C301B2010E94A80881110DC02FEFF9
:100B70003FEF4FE75FE7C301B2010E94D7061816A7
:100B80001CF48FE191E04DCF2FEF3FEF4FE75FE493
:100B9000C701B6010E94360818161CF483E291E0E2
:100BA00040CF2FEF3FEF4FE75FECC701B6010E9448
:100BB000D70687FDF3CF20E030E0A901C701B601D9
:100BC0000E94D70687FF0BC06DE281E591E00E948D
:100BD000CE0146015701B7FAB094B7F8B0942AE0B5
:100BE00037ED43EA5BE3C501B4010E946B064B019C
:100BF0005C010E9455076B017C010E9484079B01E8
:100C0000AC01C501B4010E946A064B015C014AE0D7
:100C1000C701B6010E9448026EE281E591E00E94A0
:100C2000CE0120E030E040E251E4C501B4010E9471
:100C30003B084B015C010E9455076B01F12CE12C34
:100C40004AE0C701B6010E944802C701B6010E94EE
:100C500084079B01AC01C501B4010E946A0620E033
:100C600030E040E251E40E943B080E94550790E0CA
:100C700080E04AE00E944802D6CEE1E5F1E013822E
:100C8000128288EE93E0A0E0B0E084839583A6838F
:100C9000B78384E091E09183808385EC90E0958731
:100CA000848784EC90E09787868780EC90E0918B36
:100CB000808B81EC90E0938B828B82EC90E0958B23
:100CC000848B86EC90E0978B868B118E128E138E20
:100CD000148E08955058BB27AA270E9482060C94B0
:100CE000FC070E94EE0738F00E94F50720F039F467
:100CF0009F3F19F426F40C94EB070EF4E095E7FB04
:100D00000C94E507E92F0E940D0858F3BA17620703
:100D100073078407950720F079F4A6F50C942F0843
:100D20000EF4E0950B2EBA2FA02D0B01B901900106
:100D30000C01CA01A0011124FF27591B99F0593F4A
:100D400050F4503E68F11A16F040A22F232F342F92
:100D50004427585FF3CF469537952795A795F040E0
:100D60005395C9F77EF41F16BA0B620B730B840BF5
:100D7000BAF09150A1F0FF0FBB1F661F771F881FAD
:100D8000C2F70EC0BA0F621F731F841F48F4879505
:100D900077956795B795F7959E3F08F0B0CF9395F7
:100DA000880F08F09927EE0F9795879508950E9470
:100DB000C10708F481E008950E94F0060C94FC0736
:100DC0000E94F50758F00E94EE0740F029F45F3FBB
:100DD00029F00C94E50751110C9430080C94EB07A2
:100DE0000E940D0868F39923B1F3552391F3951BE5
:100DF000550BBB27AA2762177307840738F09F5F3C
:100E00005F4F220F331F441FAA1FA9F335D00E2EA8
:100E10003AF0E0E832D091505040E695001CCAF715
:100E20002BD0FE2F29D0660F771F881FBB1F2617D8
:100E300037074807AB07B0E809F0BB0B802DBF01AF
:100E4000FF2793585F4F3AF09E3F510578F00C947E
:100E5000E5070C9430085F3FE4F3983ED4F38695A1
:100E600077956795B795F7959F5FC9F7880F911D9F
:100E70009695879597F90895E1E0660F771F881F8B
:100E8000BB1F621773078407BA0720F0621B730B3E
:100E9000840BBA0BEE1F88F7E09508950E94550762
:100EA0006894B1110C94300808950E94150888F0D8
:100EB0009F5798F0B92F9927B751B0F0E1F0660F1E
:100EC000771F881F991F1AF0BA95C9F714C0B1305F
:100ED00091F00E942F08B1E008950C942F08672F1D
:100EE000782F8827B85F39F0B93FCCF3869577958E
:100EF0006795B395D9F73EF4909580957095619577
:100F00007F4F8F4F9F4F0895E89409C097FB3EF4A1
:100F100090958095709561957F4F8F4F9F4F992346
:100F2000A9F0F92F96E9BB279395F69587957795C4
:100F30006795B795F111F8CFFAF4BB0F11F460FF84
:100F40001BC06F5F7F4F8F4F9F4F16C0882311F0DC
:100F500096E911C0772321F09EE8872F762F05C0F0
:100F6000662371F096E8862F70E060E02AF09A958B
:100F7000660F771F881FDAF7880F9695879597F980
:100F80000895990F0008550FAA0BE0E8FEEF16161A
:100F90001706E807F907C0F012161306E407F5076D
:100FA00098F0621B730B840B950B39F40A2661F0E1
:100FB000232B242B252B21F408950A2609F4A14084
:100FC000A6958FEF811D811D089597F99F6780E891
:100FD00070E060E008959FEF80EC089500240A948B
:100FE0001616170618060906089500240A94121604
:100FF0001306140605060895092E0394000C11F437
:10100000882352F0BB0F40F4BF2B11F460FF04C0E3
:101010006F5F7F4F8F4F9F4F089557FD9058440F3C
:10102000551F59F05F3F71F04795880F97FB991F47
:1010300061F09F3F79F08795089512161306140604
:10104000551FF2CF4695F1DF08C016161706180691
:10105000991FF1CF86957105610508940895E8946C
:10106000BB2766277727CB0197F908950E94C10710
:1010700008F48FEF08950E944E080C94FC070E941C
:10108000EE0738F00E94F50720F0952311F00C943C
:10109000E5070C94EB0711240C9430080E940D080E
:1010A00070F3959FC1F3950F50E0551F629FF001BB
:1010B000729FBB27F00DB11D639FAA27F00DB11DD4
:1010C000AA1F649F6627B00DA11D661F829F22275D
:1010D000B00DA11D621F739FB00DA11D621F839FE4
:1010E000A00D611D221F749F3327A00D611D231FBA
:1010F000849F600D211D822F762F6A2F11249F5708
:1011000050409AF0F1F088234AF0EE0FFF1FBB1F0A
:10111000661F771F881F91505040A9F79E3F5105C9
:1011200080F00C94E5070C9430085F3FE4F3983EA0
:10113000D4F3869577956795B795F795E7959F5F73
:10114000C1F7FE2B880F911D9695879597F9089505
:101150000E94C107880B990B0895A1E21A2EAA1BC1
:10116000BB1BFD010DC0AA1FBB1FEE1FFF1FA21757
:10117000B307E407F50720F0A21BB30BE40BF50B54
:10118000661F771F881F991F1A9469F760957095DD
:10119000809590959B01AC01BD01CF010895EE0FA4
:1011A000FF1F0590F491E02D0994F894FFCF000003
:1011B0000000CE012E015B011B028C016A017E0141
:1011C0004F75747075743A20006E616E00696E66BA
:1011D000006F766600204C656674207370656564E8
:1011E0003A20002052696768742073706565643A1C
:0611F00020000D0A0000C2
:107E0000112484B714BE81FFF0D085E080938100F7
:107E100082E08093C00088E18093C10086E0809377
:107E2000C20080E18093C4008EE0C9D0259A86E02C
:107E300020E33CEF91E0309385002093840096BBD3
:107E4000B09BFECF1D9AA8958150A9F7CC24DD24C4
:107E500088248394B5E0AB2EA1E19A2EF3E0BF2EE7
:107E6000A2D0813461F49FD0082FAFD0023811F036
:107E7000013811F484E001C083E08DD089C08234E0
:107E800011F484E103C0853419F485E0A6D080C0E4
:107E9000853579F488D0E82EFF2485D0082F10E0AE
:107EA000102F00270E291F29000F111F8ED06801E7
:107EB0006FC0863521F484E090D080E0DECF843638
:107EC00009F040C070D06FD0082F6DD080E0C81688
:107ED00080E7D80618F4F601B7BEE895C0E0D1E017
:107EE00062D089930C17E1F7F0E0CF16F0E7DF06D8
:107EF00018F0F601B7BEE89568D007B600FCFDCFD4
:107F0000A601A0E0B1E02C9130E011968C91119780
:107F100090E0982F8827822B932B1296FA010C0160
:107F200087BEE89511244E5F5F4FF1E0A038BF0790
:107F300051F7F601A7BEE89507B600FCFDCF97BE46
:107F4000E89526C08437B1F42ED02DD0F82E2BD052
:107F50003CD0F601EF2C8F010F5F1F4F84911BD097
:107F6000EA94F801C1F70894C11CD11CFA94CF0C13
:107F7000D11C0EC0853739F428D08EE10CD085E9AC
:107F80000AD08FE07ACF813511F488E018D01DD067
:107F900080E101D065CF982F8091C00085FFFCCF94
:107FA0009093C60008958091C00087FFFCCF809118
:107FB000C00084FD01C0A8958091C6000895E0E648
:107FC000F0E098E1908380830895EDDF803219F02E
:107FD00088E0F5DFFFCF84E1DECF1F93182FE3DFCA
:107FE0001150E9F7F2DF1F91089580E0E8DFEE27F6
:047FF000FF270994CA
:027FFE00040479
:00000001FF
