:020000040000FA
:100000000C9462000C948A000C948A000C948A0070
:100010000C948A000C948A000C948A000C948A0038
:100020000C948A000C948A000C948A000C94FF04AF
:100030000C948A000C948A000C948A000C948A0018
:100040000C945D040C948A000C94CD040C94A704C9
:100050000C948A000C948A000C948A000C948A00F8
:100060000C948A000C948A000000000024002700F1
:100070002A0000000000250028002B0000000000DE
:1000800023002600290004040404040404040202DA
:100090000202020203030303030301020408102007
:1000A0004080010204081020010204081020000012
:1000B0000008000201000003040700000000000027
:1000C0000000000611241FBECFEFD8E0DEBFCDBF79
:1000D00011E0A0E0B1E0E6E2FAE102C005900D9285
:1000E000AC35B107D9F722E0ACE5B1E001C01D9213
:1000F000A133B207E1F710E0C2E6D0E004C02197D7
:10010000FE010E940B0DC136D107C9F70E945D06A2
:100110000C94110D0C940000833081F028F4813090
:1001200099F08230A9F008958730A9F08830C9F09D
:100130008430B1F4809180008F7D03C08091800075
:100140008F7780938000089584B58F7784BD08955C
:1001500084B58F7DFBCF8091B0008F778093B00006
:1001600008958091B0008F7DF9CFCF93DF93282F32
:1001700030E0F901E255FF4F8491F901E656FF4F57
:10018000D491F901EA57FF4FC491CC23A1F081111A
:100190000E948C00EC2FF0E0EE0FFF1FE458FF4FA1
:1001A000A591B491EC91ED2381E090E009F480E019
:1001B000DF91CF91089580E090E0FACF1F93CF9325
:1001C000DF93282F30E0F901E255FF4F8491F901C8
:1001D000E656FF4FD491F901EA57FF4FC491CC2363
:1001E000A9F0162F81110E948C00EC2FF0E0EE0F89
:1001F000FF1FEE58FF4FA591B4918FB7F894EC9183
:10020000111108C0D095DE23DC938FBFDF91CF9111
:100210001F910895DE2BF8CFCF93DF9390E0FC0180
:10022000E656FF4F24918A579F4FFC018491882303
:10023000D1F090E0880F991FFC01E859FF4FA5917C
:10024000B491FC01EE58FF4FC591D49161110EC0DD
:100250009FB7F8948C91E22FE0958E238C932881A0
:10026000E223E8839FBFDF91CF9108958FB7F89481
:10027000EC91E22BEC938FBFF6CF1F93CF93DF93DC
:10028000182FEB0161E00E940C01209739F460E027
:10029000812FDF91CF911F910C94DE00CF3FD105CC
:1002A00011F461E0F5CFE12FF0E0E255FF4FE4916A
:1002B000E33031F140F4E130B1F0E230E1F0C03848
:1002C000D1057CF7E4CFE73029F1E83059F1E4308B
:1002D000B1F780918000806280938000D0938B0082
:1002E000C0938A0004C084B5806884BDC7BDDF9117
:1002F000CF911F91089584B5806284BDC8BDF7CFAA
:1003000080918000806880938000D0938900C093A2
:100310008800EDCF8091B00080688093B000C093DA
:10032000B300E5CF8091B00080628093B000C093AD
:10033000B400DDCF3FB7F8948091680190916901D6
:10034000A0916A01B0916B0126B5A89B05C02F3F13
:1003500019F00196A11DB11D3FBFBA2FA92F982FEB
:100360008827BC01CD01620F711D811D911D42E0E6
:10037000660F771F881F991F4A95D1F708958F92AE
:100380009F92AF92BF92CF92DF92EF92FF924B017A
:100390005C010E949A016B017C010E949A016C1918
:1003A0007D098E099F09683E734081059105A8F378
:1003B00021E0821A9108A108B10888EEC80E83E0F6
:1003C000D81EE11CF11C81149104A104B10429F789
:1003D000FF90EF90DF90CF90BF90AF909F908F9065
:1003E0000895AF92BF92CF92DF92EF92FF920F9358
:1003F0001F93CF93DF936C017B018B01040F151FBB
:10040000EB015E01AE18BF08C017D10759F0699122
:10041000D601ED91FC910190F081E02DC601099586
:10042000892B79F7C501DF91CF911F910F91FF9033
:10043000EF90DF90CF90BF90AF900895FC01538D67
:10044000448D252F30E0842F90E0821B930B5417AE
:1004500010F0CF96089501970895FC01918D828D3B
:10046000981761F0A28DAE0FBF2FB11D5D968C91D4
:10047000928D9F5F9F73928F90E008958FEF9FEF13
:100480000895FC01918D828D981731F0828DE80FCF
:10049000F11D858D90E008958FEF9FEF0895FC0189
:1004A000918D228D892F90E0805C9F4F821B910956
:1004B0008F73992708958CE691E00E944F0221E006
:1004C000892B09F420E0822F089580E090E0892BA9
:1004D00029F00E945B0281110C9400000895FC0138
:1004E000A48DA80FB92FB11DA35ABF4F2C91848D95
:1004F00090E001968F739927848FA689B7892C93F2
:10050000A089B1898C91837080648C93938D848D44
:10051000981306C00288F389E02D80818F7D808347
:100520000895EF92FF920F931F93CF93DF93EC0107
:1005300081E0888F9B8D8C8D98131AC0E889F9898A
:10054000808185FF15C09FB7F894EE89FF8960838D
:10055000E889F98980818370806480839FBF81E00E
:1005600090E0DF91CF911F910F91FF90EF90089550
:10057000F62E0B8D10E00F5F1F4F0F731127E02E2B
:100580008C8D8E110CC00FB607FCFACFE889F98963
:10059000808185FFF5CFCE010E946F02F1CFEB8DF8
:1005A000EC0FFD2FF11DE35AFF4FF0829FB7F89437
:1005B0000B8FEA89FB8980818062CFCFCF93DF9355
:1005C000EC01888D8823B9F0AA89BB89E889F9896B
:1005D0008C9185FD03C0808186FD0DC00FB607FCA0
:1005E000F7CF8C9185FFF2CF808185FFEDCFCE01D3
:1005F0000E946F02E9CFDF91CF91089570E060E033
:1006000085E00E943D0160E087E00E94DE0060E03E
:1006100084E00E94DE0070E060E086E00E943D0120
:1006200060E083E00E94DE0060E082E00E94DE0085
:1006300068EC70E080E090E00C94BF01CF93DF9312
:10064000EB01BC01660F771F85E00E943D0160E071
:1006500087E00E94DE0061E084E00E94DE00BE01CF
:10066000660F771F86E00E943D0160E083E00E94F4
:10067000DE0061E082E0DF91CF910C94DE00CF9349
:10068000DF93EB01BC0185E00E943D0161E087E062
:100690000E94DE0060E084E00E94DE00BE0186E091
:1006A0000E943D0161E083E00E94DE0060E082E0A4
:1006B000DF91CF910C94DE00FC0101900020E9F75E
:1006C0003197AF01481B590BBC018CE691E00C94AB
:1006D000F1018F929F92AF92BF920F931F93CF938E
:1006E000DF93CDB7DEB7A1970FB6F894DEBF0FBE8C
:1006F000CDBF19A2423008F44AE08E010F5D1F4FB2
:10070000842E912CB12CA12CA50194010E948B0A5E
:10071000E62FB901CA01EA30F4F4E05DD801EE93A6
:100720008D01232B242B252B79F790E080E0109767
:1007300019F0CD010E945C03A1960FB6F894DEBFBC
:100740000FBECDBFDF91CF911F910F91BF90AF90A2
:100750009F908F900895E95CE1CF2F923F924F9246
:100760005F926F927F929F92AF92BF92CF92DF92F1
:10077000EF92FF920F931F93CF93DF9300D000D09F
:10078000CDB7DEB7982E83E090E09C838B83412C1D
:10079000512C32012FE0C22ED12C33E2A32EB12CEA
:1007A000FB01E656FF4FFA83E983CB018A579F4F3F
:1007B0001C0143ECE42EF12C60E0892D0E94DE0048
:1007C000C6010197F1F761E0892D0E94DE00C501A5
:1007D0000197F1F760E0892D0E94DE00E981FA813E
:1007E0006491F1018491E82FF0E0EE0FFF1FE458CF
:1007F000FF4F8591949100E412E42FE030E0462F02
:100800000E94BB05611571058105910529F06F5F97
:100810007F4F8F4F9F4F9F700E94D80B20E030E09A
:1008200040E05FE30E948D0C2DEC3CEC48EE51E47F
:100830000E942E0B9B01AC01C301B2010E94BD0AB4
:100840002B013C01C7010197F1F78B819C81019736
:100850009C838B83892B09F0AFCF20E030E040E40C
:1008600050E4C301B2010E942E0B6B017C0120E019
:1008700030E048EC51E40E94880C181634F4C12C86
:10088000D12C88ECE82E81E4F82EC701B6010F9038
:100890000F900F900F90DF91CF911F910F91FF90CC
:1008A000EF90DF90CF90BF90AF909F907F906F9030
:1008B0005F904F903F902F9008951F920F920FB628
:1008C0000F9211242F933F938F939F93AF93BF93D6
:1008D0008091640190916501A0916601B0916701DA
:1008E0003091630123E0230F2D3758F50196A11DA8
:1008F000B11D209363018093640190936501A093DF
:100900006601B09367018091680190916901A0919F
:100910006A01B0916B010196A11DB11D8093680120
:1009200090936901A0936A01B0936B01BF91AF915D
:100930009F918F913F912F910F900FBE0F901F901D
:10094000189526E8230F0296A11DB11DD2CF1F9244
:100950000F920FB60F9211242F933F934F935F93F3
:100960006F937F938F939F93AF93BF93EF93FF9377
:100970008CE691E00E946F02FF91EF91BF91AF91E1
:100980009F918F917F916F915F914F913F912F91A7
:100990000F900FBE0F901F9018951F920F920FB6D9
:1009A0000F9211242F938F939F93EF93FF93E091D6
:1009B0007C01F0917D018081E0918201F0918301C1
:1009C00082FD1BC09081809185018F5F8F73209184
:1009D0008601821741F0E0918501F0E0E459FE4F75
:1009E000958F80938501FF91EF919F918F912F912A
:1009F0000F900FBE0F901F9018958081F4CF1F921B
:100A00000F920FB60F9211242F933F934F935F9342
:100A10006F937F938F939F93AF93BF93CF93DF9306
:100A2000EF93FF9380915C01C0912D02D0E087FF8E
:100A300024C0109285001092840080915C018F5F29
:100A400080935C0180915C01082E000C990B8C173F
:100A50009D0724F480915C018C30C4F18091840066
:100A600090918500049680349C4908F47AC0809166
:100A7000840090918500049676C080915C01082ED8
:100A8000000C990B8C179D07C4F6E0915C018E2F2A
:100A9000EE0F990BFC01EE0FFF1FE80FF91FE75F48
:100AA000FD4F808186FFC9CFE0915C018E2FEE0F54
:100AB000990BFC01EE0FFF1FE80FF91FE75FFD4FD9
:100AC000808160E08F730E94DE00B7CF20918400A8
:100AD00030918500E0915C018E2FEE0F990BFC01A7
:100AE000EE0FFF1FE80FF91FE75FFD4F8181928135
:100AF000820F931F9093890080938800E0915C019E
:100B00008E2FEE0F990BFC01EE0FFF1FE80FF91F60
:100B1000E75FFD4F808186FF11C0E0915C018E2F61
:100B2000EE0F990BFC01EE0FFF1FE80FF91FE75FB7
:100B3000FD4F808161E08F730E94DE00FF91EF9195
:100B4000DF91CF91BF91AF919F918F917F916F91E5
:100B50005F914F913F912F910F900FBE0F901F907B
:100B6000189580E49CE990938900809388008FEF2A
:100B700080935C01E3CFCF92DF92EF92FF920F93CD
:100B80001F93E82FF92F05C00150110921093109E0
:100B900061F1908196239417B9F305C001501109B2
:100BA0002109310911F1908196239413F7CFC12CBB
:100BB000D12CE12CF12C0AC08FEFC81AD80AE80A10
:100BC000F80A0C151D052E053F0579F08081862356
:100BD000841791F36C2D7D2D8E2D9F2D1F910F91DC
:100BE000FF90EF90DF90CF90089560E070E080E09C
:100BF00090E01F910F91FF90EF90DF90CF900895BC
:100C000010926F0110926E0188EE93E0A0E0B0E0C8
:100C10008093700190937101A0937201B09373015E
:100C200085E091E090936D0180936C0185EC90E0FC
:100C3000909379018093780184EC90E090937B010C
:100C400080937A0180EC90E090937D0180937C0109
:100C500081EC90E090937F0180937E0182EC90E0A4
:100C6000909381018093800186EC90E090938301C2
:100C70008093820110928501109286011092870163
:100C80001092880180912D028C3098F491E0980F99
:100C900090932D0280932E0290E0FC01EE0FFF1F37
:100CA000E80FF91FE75FFD4F88EB9BE0928381839C
:100CB00008958FEF80932E020895CF93DF93CDB7E1
:100CC000DEB72A970FB6F894DEBF0FBECDBF78947B
:100CD00084B5826084BD84B5816084BD85B5826041
:100CE00085BD85B5816085BD80916E0081608093F2
:100CF0006E0010928100809181008260809381005B
:100D0000809181008160809381008091800081606A
:100D1000809380008091B10084608093B1008091C5
:100D2000B00081608093B00080917A0084608093ED
:100D30007A0080917A00826080937A0080917A00B4
:100D4000816080937A0080917A00806880937A0035
:100D50001092C10061E087E00E940C0161E084E034
:100D60000E940C0161E083E00E940C0161E082E0DE
:100D70000E940C0161E085E00E940C0161E086E0C8
:100D80000E940C0160E08EE00E940C0160E08FE0A8
:100D90000E940C0160E080E10E940C0180912E0213
:100DA0008C3008F051C061E089E00E940C01809114
:100DB0002E02282F30E0F901EE0FFF1FE20FF31F84
:100DC000E75FFD4F9081907C9960908310922F0295
:100DD000109230022CE0622F0E94FF0C829FB00123
:100DE000112430E020E0AB01420F531FFA01EE0F57
:100DF000FF1FE40FF51FE75FFD4F908196FD16C0C2
:100E00002F5F3F4F2C30310571F781110FC01092C9
:100E1000800082E08093810010928500109284000F
:100E2000B19A80916F00826080936F00E0912E02F2
:100E30008E2F90E0FC01EE0FFF1FE80FF91FE75F18
:100E4000FD4F80818064808310912E02809130025A
:100E500048E5E42E42E0F42EE81AF10887FDF39409
:100E6000EE0CFF1CEE0CFF1C80912F0228E830E0F6
:100E7000281B310987FD3395220F331F220F331FA3
:100E80003A8329834901330FAA08BB0897010F2C25
:100E9000000C440B550B281939094A095B09AAE5CE
:100EA000B0E00E94800A24EB30E040E050E00E9475
:100EB000610A820E931EA41EB51E1C3018F52981EE
:100EC0003A81821693063CF0FA82E9828E149F04DE
:100ED00014F49A82898289819A810297880F991FD6
:100EE0009A8389832FB7F894812F90E0FC01EE0F4D
:100EF000FF1FE80FF91FE75FFD4F89819A819283F9
:100F000081832FBF61E08CE00E940C0160E08DE0E6
:100F10000E940C0161E08AE00E940C0160E08BE01D
:100F20000E940C01E0917C01F0917D0182E08083C0
:100F3000E0917801F09179011082E0917A01F091CD
:100F40007B018FEC808310928401E0918001F0910D
:100F5000810186E08083E0917E01F0917F018081B4
:100F600080618083E0917E01F0917F0180818860C3
:100F70008083E0917E01F0917F0180818068808391
:100F8000E0917E01F0917F0180818F7D808360ED13
:100F900077E080E090E00E94BF0180E0282E80E0B2
:100FA000382E11E080910001882309F4AAC08EE058
:100FB0000E94B5007C018FE00E94B5006C0180E1C9
:100FC0000E94B5009A8389836BE070E08AE090E02C
:100FD0000E94AD0321E0E216F10409F04AC031E0BD
:100FE000C316D10409F045C029813A812130310569
:100FF00009F052C20E94A00B65317105810591056F
:101000000CF04FC283E191E00E945C038FE291E01B
:101010000E945C0310920001109362018CE691E043
:101020000E944F0218161906C4F48CE691E00E9443
:101030002D028F3609F429C2873709F421C28C3674
:1010400061F410930001109262011092610168EE48
:1010500073E080E090E00E94BF012114310409F4A4
:10106000A1CF0E945B02882309F49CCF0E9400005C
:1010700099CFC114D10451F589819A81019719F052
:10108000EF2809F00EC268E770E086E00E943D019B
:1010900061E083E00E94DE0060E082E00E94DE000A
:1010A0006EE170E085E00E943D0161E087E00E9412
:1010B000DE0060E084E00E94DE0064E670E080E034
:1010C00090E00E94BF010E94FE02A8CF29813A81D0
:1010D000232B09F0E6C1CA94CD2819F0EF2809F0B6
:1010E000E0C16EE170E086E00E943D0161E083E0D6
:1010F0000E94DE0060E082E00E94DE0068E770E0AF
:10110000D1CF80916201882309F4AAC16BE070E01D
:101110008AE090E00E94AD0369837A838B839C838D
:101120006DE070E08CE090E00E94AD036D837E8303
:101130008F83988720E030E040E751E469817A812D
:101140008B819C810E94BC0A6B017C0120915D0116
:1011500030915E0140915F01509160010E94BC0A94
:101160002FE832EC45EF5CE30E942E0B2AE939E9C7
:1011700049E95EE30E948D0C4B015C01C0925D0168
:10118000D0925E01E0925F01F09260012AE939E9B4
:1011900049E95EE3C701B6010E948D0CA5019401E7
:1011A0000E94BD0A6B017C01AC019B010E94FA0CFC
:1011B000882309F4BDC082E391E00E945C038FE2C2
:1011C00091E00E945C03C701B6010E94A00B072EAC
:1011D000000C880B990B0E94D80B6B017C018EE0F0
:1011E0000E94B5003C018FE00E94B5002C0180E117
:1011F0000E94B5009A87898720E030E040E450E4FF
:10120000C701B6010E948D0C20E030E04CE852E4AA
:101210000E94BD0A0E94A00B4B012AE939E949E965
:101220005EE3C701B6010E948D0C9B01AC0160E03A
:1012300070E08CE892E40E94BC0A0E94A00BCB01F3
:10124000B4010E943F0320E030E040EA50E46D81A9
:101250007E818F8198850E94290B87FF34C066E4C8
:1012600070E086E490E00E941E036CE271E080E092
:1012700090E00E94BF0160EF70E085E00E943D01B8
:1012800060E087E00E94DE0061E084E00E94DE0012
:1012900060EF70E086E00E943D0161E083E00E9423
:1012A000DE0060E082E00E94DE0062E370E080E049
:1012B00090E00E94BF0110925D0110925E011092B9
:1012C0005F011092600120E030E040EA51E4698162
:1012D0007A818B819C810E94880C18160CF0BAC010
:1012E00020E030E040E051E46D817E818F8198857F
:1012F0000E94880C18160CF0ADC0452809F0AAC051
:10130000672809F08BCE8EE391E00E945C038FE2A8
:1013100091E00E945C0310926201109361010E94AF
:10132000FE0264EF71E080E090E00E94BF0176CEA3
:1013300046015701E894B7F82FEF3FEF4FE75FE71B
:10134000C501B4010E94FA0C81110DC02FEF3FEFCF
:101350004FE75FE7C501B4010E94290B18161CF482
:1013600086E391E02ACF2FEF3FEF4FE75FE4C7011D
:10137000B6010E94880C18161CF48AE391E01DCF78
:101380002FEF3FEF4FE75FECC701B6010E94290B3B
:1013900087FDF3CF20E030E0A901C701B6010E942C
:1013A000290B87FF54C06DE28CE691E00E94910208
:1013B000C701B60190582AE037ED43EA5BE30E948B
:1013C000BD0A2B013C010E94A70B4B015C010E944E
:1013D000D60B9B01AC01C301B2010E94BC0A2B01D8
:1013E0003C014AE0C501B4010E9469036EE28CE64B
:1013F00091E00E94910220E030E040E251E4C3011C
:10140000B2010E948D0C2B013C010E94A70B4B01E5
:10141000B12CA12C4AE0C501B4010E946903C501A9
:10142000B4010E94D60B9B01AC01C301B2010E9422
:10143000BC0A20E030E040E251E40E948D0C0E94A2
:10144000A70B90E080E04AE00E946903B8CEC70194
:10145000B601B1CF89859A85892B09F451CFDECDAC
:1014600080916101882309F4D9CD68E770E088E7AD
:1014700090E00E943F0368EB7BE080E090E021CEAB
:101480001092000110936201E0CD109200011092C1
:10149000620110936101DBCD29813A81232B09F48C
:1014A00020CE6AE570E086E00E943D0161E083E0C5
:1014B0000E94DE0060E082E00E94DE006AE570E0EB
:1014C000F1CD052E97FB1EF400940E94780A57FD7B
:1014D00007D00E948B0A07FC03D04EF40C94780AC4
:1014E00050954095309521953F4F4F4F5F4F089550
:1014F00090958095709561957F4F8F4F9F4F089580
:101500000E94AD0AA59F900DB49F900DA49F800DE1
:10151000911D11240895A1E21A2EAA1BBB1BFD01E7
:101520000DC0AA1FBB1FEE1FFF1FA217B307E407C2
:10153000F50720F0A21BB30BE40BF50B661F771F1A
:10154000881F991F1A9469F76095709580959095FA
:101550009B01AC01BD01CF010895A29FB001B39FD3
:10156000C001A39F700D811D1124911DB29F700DAC
:10157000811D1124911D08955058BB27AA270E9450
:10158000D40A0C944E0C0E94400C38F00E94470C78
:1015900020F039F49F3F19F426F40C943D0C0EF41E
:1015A000E095E7FB0C94370CE92F0E945F0C58F391
:1015B000BA17620773078407950720F079F4A6F538
:1015C0000C94810C0EF4E0950B2EBA2FA02D0B017C
:1015D000B90190010C01CA01A0011124FF27591B78
:1015E00099F0593F50F4503E68F11A16F040A22F7E
:1015F000232F342F4427585FF3CF469537952795EF
:10160000A795F0405395C9F77EF41F16BA0B620BED
:10161000730B840BBAF09150A1F0FF0FBB1F661F34
:10162000771F881FC2F70EC0BA0F621F731F841F77
:1016300048F4879577956795B795F7959E3F08F09D
:10164000B0CF9395880F08F09927EE0F979587955F
:1016500008950E94130C08F481E008950E94420B43
:101660000C944E0C0E94470C58F00E94400C40F025
:1016700029F45F3F29F00C94370C51110C94820C23
:101680000C943D0C0E945F0C68F39923B1F3552331
:1016900091F3951B550BBB27AA2762177307840785
:1016A00038F09F5F5F4F220F331F441FAA1FA9F31B
:1016B00035D00E2E3AF0E0E832D091505040E69509
:1016C000001CCAF72BD0FE2F29D0660F771F881F6A
:1016D000BB1F261737074807AB07B0E809F0BB0B5D
:1016E000802DBF01FF2793585F4F3AF09E3F510571
:1016F00078F00C94370C0C94820C5F3FE4F3983E26
:10170000D4F3869577956795B795F7959F5FC9F759
:10171000880F911D9695879597F90895E1E0660FDA
:10172000771F881FBB1F621773078407BA0720F053
:10173000621B730B840BBA0BEE1F88F7E0950895BC
:101740000E94A70B6894B1110C94820C08950E941A
:10175000670C88F09F5798F0B92F9927B751B0F0D0
:10176000E1F0660F771F881F991F1AF0BA95C9F725
:1017700014C0B13091F00E94810CB1E008950C9436
:10178000810C672F782F8827B85F39F0B93FCCF3E9
:10179000869577956795B395D9F73EF490958095A2
:1017A000709561957F4F8F4F9F4F0895E89409C0C2
:1017B00097FB3EF490958095709561957F4F8F4F84
:1017C0009F4F9923A9F0F92F96E9BB279395F6959A
:1017D000879577956795B795F111F8CFFAF4BB0F18
:1017E00011F460FF1BC06F5F7F4F8F4F9F4F16C07C
:1017F000882311F096E911C0772321F09EE8872F06
:10180000762F05C0662371F096E8862F70E060E0C1
:101810002AF09A95660F771F881FDAF7880F96953A
:10182000879597F90895990F0008550FAA0BE0E8DE
:10183000FEEF16161706E807F907C0F01216130692
:10184000E407F50798F0621B730B840B950B39F4D2
:101850000A2661F0232B242B252B21F408950A2638
:1018600009F4A140A6958FEF811D811D089597F978
:101870009F6780E870E060E008959FEF80EC089536
:1018800000240A941616170618060906089500245F
:101890000A9412161306140605060895092E0394D9
:1018A000000C11F4882352F0BB0F40F4BF2B11F44D
:1018B00060FF04C06F5F7F4F8F4F9F4F089557FDAC
:1018C0009058440F551F59F05F3F71F04795880FAE
:1018D00097FB991F61F09F3F79F087950895121645
:1018E00013061406551FF2CF4695F1DF08C01616F1
:1018F00017061806991FF1CF8695710561050894A2
:101900000895E894BB2766277727CB0197F90895B8
:101910000E94130C08F48FEF08950E94A00C0C9401
:101920004E0C0E94400C38F00E94470C20F095238A
:1019300011F00C94370C0C943D0C11240C94820C77
:101940000E945F0C70F3959FC1F3950F50E0551FF7
:10195000629FF001729FBB27F00DB11D639FAA2704
:10196000F00DB11DAA1F649F6627B00DA11D661F53
:10197000829F2227B00DA11D621F739FB00DA11D74
:10198000621F839FA00D611D221F749F3327A00D2E
:10199000611D231F849F600D211D822F762F6A2FCA
:1019A00011249F5750409AF0F1F088234AF0EE0F2F
:1019B000FF1FBB1F661F771F881F91505040A9F75C
:1019C0009E3F510580F00C94370C0C94820C5F3FC5
:1019D000E4F3983ED4F3869577956795B795F79598
:1019E000E7959F5FC1F7FE2B880F911D9695879510
:1019F00097F908950E94130C880B990B0895991B71
:101A000079E004C0991F961708F0961B881F7A95F5
:101A1000C9F780950895EE0FFF1F0590F491E02D12
:101A20000994F894FFCF01000000009102F1011E1B
:101A300002DE024F022D0241025377697463686926
:101A40006E6720746F2077616C6C20666F6C6C6FB2
:101A500077696E67000D0A006E616E00696E660040
:101A60006F766600537769746368696E6720746F78
:101A7000206F626A65637420646574656374696F5E
:021A80006E00F6
:107E0000112484B714BE81FFF0D085E080938100F7
:107E100082E08093C00088E18093C10086E0809377
:107E2000C20080E18093C4008EE0C9D0259A86E02C
:107E300020E33CEF91E0309385002093840096BBD3
:107E4000B09BFECF1D9AA8958150A9F7CC24DD24C4
:107E500088248394B5E0AB2EA1E19A2EF3E0BF2EE7
:107E6000A2D0813461F49FD0082FAFD0023811F036
:107E7000013811F484E001C083E08DD089C08234E0
:107E800011F484E103C0853419F485E0A6D080C0E4
:107E9000853579F488D0E82EFF2485D0082F10E0AE
:107EA000102F00270E291F29000F111F8ED06801E7
:107EB0006FC0863521F484E090D080E0DECF843638
:107EC00009F040C070D06FD0082F6DD080E0C81688
:107ED00080E7D80618F4F601B7BEE895C0E0D1E017
:107EE00062D089930C17E1F7F0E0CF16F0E7DF06D8
:107EF00018F0F601B7BEE89568D007B600FCFDCFD4
:107F0000A601A0E0B1E02C9130E011968C91119780
:107F100090E0982F8827822B932B1296FA010C0160
:107F200087BEE89511244E5F5F4FF1E0A038BF0790
:107F300051F7F601A7BEE89507B600FCFDCF97BE46
:107F4000E89526C08437B1F42ED02DD0F82E2BD052
:107F50003CD0F601EF2C8F010F5F1F4F84911BD097
:107F6000EA94F801C1F70894C11CD11CFA94CF0C13
:107F7000D11C0EC0853739F428D08EE10CD085E9AC
:107F80000AD08FE07ACF813511F488E018D01DD067
:107F900080E101D065CF982F8091C00085FFFCCF94
:107FA0009093C60008958091C00087FFFCCF809118
:107FB000C00084FD01C0A8958091C6000895E0E648
:107FC000F0E098E1908380830895EDDF803219F02E
:107FD00088E0F5DFFFCF84E1DECF1F93182FE3DFCA
:107FE0001150E9F7F2DF1F91089580E0E8DFEE27F6
:047FF000FF270994CA
:027FFE00040479
:00000001FF
