:10400000007F0020C978000071770000C5780000AB
:10401000C5780000C5780000C5780000C5780000AC
:10402000000000000000000000000000C578000053
:10403000C578000000000000C5780000C5780000C9
:104040000000000000000000000000000000000070
:104050000000000000000000000000000000000060
:104060000000000000000000000000000000000050
:104070000000000000000000000000000000000040
:104080000000000000000000000000000000000030
:104090000000000000000000000000000000000020
:1040A0000000000000000000000000000000000010
:1040B0000000000000000000000000000000000000
:1040C00010B5054C237833B9044B13B10448AFF352
:1040D00000800123237010BD60020020000000005A
:1040E0002815010008B5034B1BB103490348AFF382
:1040F000008008BD000000006402002028150100B7
:1041000008B50B4B0121187806F0FEFA094B002187
:10411000187806F0F9FA084B0121187806F0F4FA3D
:10412000064B00211878BDE8084006F0EDBA00BF44
:104130000000002004000020080000200C000020E7
:1041400008B50B4B0021187806F0DEFA094B012167
:10415000187806F0D9FA084B0021187806F0D4FA3E
:10416000064B01211878BDE8084006F0CDBA00BF23
:104170000000002004000020080000200C000020A7
:1041800008B50B4B0021187806F0BEFA094B002148
:10419000187806F0B9FA084B0021187806F0B4FA3E
:1041A000064B00211878BDE8084006F0ADBA00BF04
:1041B0000000002004000020080000200C00002067
:1041C00008B5114B0121187806F086FA0F4B012132
:1041D000187806F081FA0E4B0121187806F07CFA67
:1041E0000C4B0121187806F077FA0121092006F01E
:1041F00073FA01210A2006F06FFA4FF416510648AF
:10420000BDE8084004F098BE000000200400002033
:10421000080000200C000020D00300201FB56421FE
:10422000092005F0FDFA64210A2005F0F9FA124888
:1042300004F0C9FE002811DD0F490A2201A805F08B
:104240003BFD01A805F0EDFD0C4901A805F0D5FDE9
:1042500038B1FFF755FF01A805F046FD05B05DF840
:1042600004FB074901A805F0C8FD10B1FFF768FF7E
:10427000F1E7FFF785FFEEE7D00300201C06010001
:104280002406010008B506F0B3FA002008BD272077
:104290007047704737B5FFF7FCFF01210D2006F08E
:1042A0001BFA00210D2006F02FFA68460722032191
:1042B00008F028FCBDF800301C4CC3F38413012522
:1042C000684607220521E55408F01CFCBDF80030C3
:1042D000C3F38413684607220621E55408F012FC54
:1042E000BDF80030C3F38413684607220921E55462
:1042F00008F008FCBDF80030C3F3841368460722B9
:104300000A21E55408F0FEFBBDF80030C3F3841326
:1043100007220B216846E55408F0F4FBBDF8003095
:10432000C3F38413E55403B030BD00BF5A0300202B
:1043300030B5836A85B004468C4601ADABB193E8D5
:10434000070085E807006268117883F804C0E26A14
:104350009A6019601846626A9047A36A1BB195E893
:10436000070083E8070005B030BD2B46EBE700BF30
:1043700010B4EFF30383103B5BB203F1C001204A9A
:10438000204C52F821006FF3104042F8210054F8FD
:104390002330D3E906218A421BD0186940B393F831
:1043A00020400F2C0BD99968496840F82210D96930
:1043B00001328A429A610CD05DF8044B7047072C99
:1043C00019D8996809798154D96901328A429A6168
:1043D000F2D15B680C4993F903305DF8044B58093E
:1043E000012203F01F0302FA03F341F82030704763
:1043F00098684068DCE79C68A48820F81240D7E7FA
:1044000000600040C802002000E100E0F0B5EFF3DA
:104410000383103B5BB203F1C0022F492F4C51F8CC
:1044200022006FF3104041F8220054F823305868FE
:10443000026A002A30D092F801C0DC695A69BCF1E6
:10444000010F17D094420FD0D96841B393F82000E0
:104450000F280AD80728986895BF895C31F8121090
:104460000171818001325A61F0BD986851F82210C3
:104470004160F7E704F1FF3E724513D0016900295E
:10448000E0D090F9031016484D0901F01F010CFA15
:1044900001F140F82510D5E75A69DC69D2E7986840
:1044A0004160DFE790F903E00EF1C0064FEA5E10CD
:1044B000800051F8267000F1604000F561400EF078
:1044C0001F0E0CFA0EF56FF3104741F82670C0F876
:1044D00080510560B6E700BF00600040C8020020C0
:1044E00000E100E010B4EFF30383103B5BB2324A0B
:1044F000324C03F1C00152F821006FF3104042F832
:10450000210054F823008268D278920706D54268C9
:10451000527A012A02D05DF8044B70475909284CA1
:104520000122203103F01F0302FA03F344F8213083
:10453000BFF34F8FBFF36F8F436893F90230002BA7
:104540002FDB5909203103F01F0302FA03F344F86B
:104550002130BFF34F8FBFF36F8FD0E90114237861
:1045600091F902106FF386130029237014DB01F117
:10457000C00C114C4B099B0001F01F018A4003F154
:10458000604354F82C1003F561436FF3104144F875
:104590002C10C3F880211A605DF8044B0121FFF74D
:1045A000C7BE82685DF8044B13786FF386131370EF
:1045B0000121FFF7BDBE00BF00600040C80200201F
:1045C00000E100E070B5EFF30384103C314B64B2BE
:1045D00053F82460736893F90230002B42DB5A09C8
:1045E0002D492032012003F01F0300FA03F341F8A4
:1045F0002230BFF34F8FBFF36F8FD6E9012392F9BB
:1046000002101A7800296FF386121A7015DB01F177
:10461000C00C224D4A09920001F01F0100FA01F17D
:1046200002F1604255F82C0002F561426FF3104030
:1046300045F82C00C2F880111160DA780021D5B25B
:104640001207D97021D4EB0712D405F01405142DEC
:1046500016D0124BC03453F824206FF3104243F8A5
:10466000242070BDB3681A786FF386121A70E4E7DD
:104670000421304605F01405FFF75AFE142DE8D149
:1046800008213046FFF754FEE3E705213046FFF7E7
:104690004FFED8E7C802002000E100E000600040C3
:1046A000036A70B50446987800F07B0098700D4658
:1046B000217841B32261E269E5601069002841D0A8
:1046C000226982B1A378816800688E68E16803F08E
:1046D0000303013B22FA03F3002222619BB2B0479D
:1046E00080B9236A21789A7842F080029A7039BBA7
:1046F00094F802C00CF0030CBCF1020F1AD02A7817
:10470000DA70002070BD94F802C0E0690CF0030E6E
:104710000069A2EB0E02226105EB0E02E2600028A6
:10472000CED19A780CF0030C42F08002BCF1020F5B
:104730009A70E4D12A8842F47E420020DA8170BD6A
:10474000002070BD9A7842F080029A7070BD00BF60
:10475000036A91F801C09A7800B502F07B0E02F06E
:104760000B029A700022C2608878587010461A783E
:104770006CF301021A70CA789A7493F807C00A7829
:104780000CF0A30102F05C020A43DA7183F802E044
:104790005DF804FB10B5D0E90721002343608B705E
:1047A00092F905202F49044650090123203002F0D8
:1047B0001F0203FA02F241F82020BFF34F8FBFF32C
:1047C0006F8FE26992F90B205009203002F01F022E
:1047D00003FA02F241F82020BFF34F8FBFF36F8F2F
:1047E000E26992F907205009203002F01F0203FA13
:1047F00002F241F82020BFF34F8FBFF36F8FE269C1
:1048000092F90920500902F01F02934000F12002A2
:1048100041F82230BFF34F8FBFF36F8FE369DA683F
:1048200022B1936810681B6A9847E3691B691BB142
:104830009A681868136A9847EFF31081012383F38D
:104840001088E369084A1C78D2F800014FF0004351
:10485000E3400343C2F80031D2F8003181F31088FD
:10486000002010BD00E100E0006F0440F0B5846A54
:1048700085B005460F4694466E46B4B194E80F00E5
:1048800086E80F00EB691B7884F804C02360EB6AAC
:104890002046C4E902736B6A9847AC6A1CB196E87B
:1048A0000F0084E80F0005B0F0BD3446EAE700BF12
:1048B0008C46516830B4029C0D6880B91C609CF82D
:1048C000010038B9E8784FF0010C0B346CF3051097
:1048D000E8701C60936810681B6830BC184704F1CE
:1048E0000C001860EBE700BF2DE9F0470D46097892
:1048F0000323CB4013F0010301F1007218BF102312
:10490000037002F5605283785201012161F30103C3
:104910000262A9696A6942620022C0E90A21C5618E
:1049200083706B7882B0044623B98378022262F3E5
:104930000103837095F90B00594B95F80AC04209A1
:10494000203200F01F06012101FA06F643F822602A
:10495000BFF34F8FBFF36F8F524A534E00F1C00722
:104960004FEA0C1C52F827E06FF3104E42F827E094
:104970001F185FFA8CFC87F800C346F8204095F9B1
:10498000050095F804C04709203700F01F0E01FA12
:104990000EFE43F827E0BFF34F8FBFF36F8F00F198
:1049A000C00703EB000852F827E04FEA0C1C5FFA3F
:1049B0008CFC6FF3104E42F827E088F800C346F8ED
:1049C000204095F9070095F806C04709203700F008
:1049D0001F0E01FA0EFE43F827E0BFF34F8FBFF31F
:1049E0006F8F00F1C00703EB000852F827E04FEA91
:1049F0000C1C5FFA8CFC6FF3104E42F827E088F82D
:104A000000C346F8204095F9090095F808C0470909
:104A1000203700F01F0E01FA0EF143F82710BFF304
:104A20004F8FBFF36F8F00F1C0074FEA0C1152F8A0
:104A300027C003446FF3104C42F827C0C9B283F873
:104A40000013EA6846F8204072B153681B684FF4BF
:104A5000002143F8041B216A05310091E1692078A7
:104A6000FFF726FF0646B0B92A69FAB153681B68FA
:104A70004FF0006143F8081B216A03310091E1699E
:104A80002078FFF715FF064680B1EB681BB19A68E6
:104A90001868136A9847304602B0BDE8F08700BF37
:104AA00000E100E000600040C8020020EFF3108049
:104AB000012383F31088984B2E78D3F800214FF010
:104AC0000041F14022EA0102C3F80021D3F800318D
:104AD00080F31088236AE06900229A701A715A7272
:104AE0009A72DA725A83297840F20722CA40D207B2
:104AF00044BF4022DA7406221A7722787AB1C1685C
:104B0000013A002900F0FE800126120391B23143E0
:104B100041F006029A829A8A92B29142FBD1EA78D7
:104B2000A978D20042EA01126978032900F0D780FF
:104B3000002914BFF221E221ED69D2B21A709971F5
:104B40002A7B520002F002025A736A78A978002682
:104B50001E7295F800C0D201490101F02001D2B2C5
:104B60000A43ACF10201012940F2BD80D2B2DA71F0
:104B70006A68917859701978567866F3010119704E
:104B8000D17899741278D97902F05C0201F0A3010E
:104B90000A43DA710027C4E90377C4E9057790F97D
:104BA00005105E4E01F1C00E4A0956F82E809200A3
:104BB00067F3104802F1604246F82E8002F5614228
:104BC0004FF0010E01F01F010EFA01F1C2F8801141
:104BD000116090F90B1001F1C0094A0956F829A09B
:104BE000920002F1604202F5614267F3104A01F05F
:104BF0001F0146F829A00EFA01F1C2F880111160D8
:104C000090F9071001F1C0094A0956F829A092004D
:104C100002F1604202F5614201F01F0167F3104AA0
:104C200046F829A00EFA01F1C2F88011116090F93E
:104C3000091001F1C0004A0956F82090920002F1D3
:104C4000604267F3104946F8209002F561420CF08B
:104C5000030C01F01F010EFA01F14CF0700CC2F8C8
:104C60008011116083F802C06B8923814FF6FF78B1
:104C700043452DD0EFF310818EF31088284A136836
:104C80001BB92848C3704023C370136801331360F5
:104C900081F31088218924480B0A1B0153FA81F102
:104CA00050F8213023F0011323F4404343F0040370
:104CB00040F82130EFF31081012383F3108813684B
:104CC00013B11368013B13601368B3B181F310880B
:104CD000164B63600026304602B0BDE8F08742F014
:104CE0004002F22128E7BCF1020F08BF42F0100297
:104CF000FF21D2B25970DA714CE70A4A8020D37092
:104D0000D070E3E7C169097A1140090201F47061CA
:104D100041F00106F9E600BF006F0440006000406A
:104D2000C4020020000D04400008044055494353CC
:104D30002DE9F04F1E46FF23B37033786FF38203E3
:104D40008BB033708023F370554B0992554A1B6A20
:104D500012680191C3F302618A40C3F30233DA405F
:104D6000514B07900021100A06920891059002917C
:104D70000093A2FB03BA099B009A93426EDA9DF856
:104D8000203003930027494B039ADD5DC5F34003B0
:104D9000C5F3800504932B43934256D1444B33F81B
:104DA0001780079B03FB08F8069BB3FBF8F2541E21
:104DB000FF2C4AD802FB08F91DE0059BB9FBF3F371
:104DC0007F2B03FB00F040D90028B8BFFF30001252
:104DD000A0F5C330A0380028009AB8BF40428242F4
:104DE00040DC029BF370337843F00403A9EB08091D
:104DF000337054B3013C4A464FEAE9735846514672
:104E000008F0F8FB019A002AD7D1A0F5C333A03BE4
:104E1000002B009AB8BF5B429A4216DD0093234BE9
:104E2000B470DA5D3378C2F3000161F3861304993C
:104E300061F3041365F3C30333707378C2F3C102E3
:104E400062F301037370019B029301370D2F9AD116
:104E5000089BF3B1009B099A93421DDC00200BB024
:104E6000BDE8F08F0293114B049AD95D337800901E
:104E7000C1F3000060F3861362F3041365F3C30308
:104E800033707378B470C1F3C10161F301037370BF
:104E9000A7E7012308936EE703200BB0BDE8F08F6E
:104EA00000E0014054030020A086010060080100DA
:104EB00070080100F0B5EFF30383103B5BB203F120
:104EC000C001344A344C52F821006FF3104042F8CC
:104ED000210054F82300C3691B6913B1036913B19E
:104EE000F0BD036983B9D0E90824937803F07F0308
:104EF000002143F004039370C160002CF0D0BDE8A2
:104F0000F0408022FFF7B2BC05785DB3066AF18AF3
:104F1000C1F30421A9421ED28478C2681F4F04F055
:104F2000030E74460BE092F800C086F80FC0013102
:104F30001B1B2244A942C0E903230CD25BB1BEF182
:104F4000020FF0D1B2F800C04CEA070C1FFA8CFC3B
:104F5000A6F80EC0EBE732796FF3C7123271002B5F
:104F6000BED1C0E7827802F003010229C1680BD0EC
:104F7000046A0D78E57002F003029B1A0A44C0E946
:104F80000323002BACD1AEE70C88056A44F47E44C1
:104F9000EC81F0E700600040C802002000FEFFFF47
:104FA00010B582B0EFF30383103B5BB203F1C00195
:104FB000574A584C52F821006FF3104042F8210034
:104FC00054F82340E369DB6813B1A369002B49D18E
:104FD00022894FF6FF739A4275D12278236AF2B183
:104FE000D98AC80612D01B8AC3F308030193A369A8
:104FF000FBB9636A2BB1042201992046FFF736FC06
:1050000022782AB1236AD98AC906E8D1BE221A7148
:1050100023894FF6FF72934231D102B010BDA178BF
:1050200001F003010229DED05B790193A369002B13
:10503000DFD0A278606902F0030201A908F0DAFC6F
:10504000D4E90521A37803F003031A44C91AC4E97B
:10505000052129B9636A1BB101222046FFF706FC2E
:105060002278CEE7636A0021C4E90511002BD4D071
:105070000122204602B0BDE81040FFF7F7BB1A0A34
:105080001201254952FA83F351F8232022F001122C
:1050900022F4404242F0040241F82320EFF3108250
:1050A000012383F310881D4B196811B11968013968
:1050B00019601B681BB91A498020CB70C87082F335
:1050C000108802B010BDEFF31081012383F3108824
:1050D000124B1A681AB91248C2704022C2701A687C
:1050E00001321A6081F3108822890B49130A1B01CF
:1050F00053FA82F251F8223023F0011323F4404393
:1051000043F0050341F82230236A227867E700BFA5
:1051100000600040C802002000080440C4020020D3
:10512000000D044010B5EFF30384103C0B4B64B248
:1051300053F82400D0E90821937803F07B0393709F
:1051400019B102220021FFF791FB054BC03453F83F
:1051500024206FF3104243F8242010BDC802002021
:105160000060004010B5EFF30384103C194B64B2AB
:1051700053F82400037843B9837803F00303022B28
:1051800003D0036A5979C9B203E0036A198AC1F3EB
:10519000080193F804C01CF0100F0CF0380206D080
:1051A00093F81CC01CF0010F08BF42F0400293F8B6
:1051B00004C00CF0C70C83F804C0436A0BB1FFF7BE
:1051C00055FB054BC03453F824206FF3104243F8CD
:1051D000242010BDC80200200060004030B5436AA2
:1051E00085B004468C4601ADABB193E8070085E875
:1051F00007006268117883F804C0A26A9A60196097
:105200001846226A9047636A1BB195E8070083E855
:10521000070005B030BD2B46EBE700BF10B4EFF33D
:105220000383103B5BB203F1C001144A144C52F8E3
:1052300021006FF3104042F8210054F823305A69DE
:10524000D9698A4206D2D3E90240A8B1805CE070F5
:1052500001325A618A4202D05DF8044B70471A69E4
:10526000002AF9D19A685DF8044B937803F07B0328
:1052700043F0040393707047E070E9E7006000407A
:10528000C802002010B4EFF30383103B5BB203F1BC
:10529000C001174A174C52F821006FF3104042F832
:1052A000210054F823305A69D9698A4206D2D3E9D9
:1052B0000240D0B1805CE07001325A619A698A4242
:1052C00007D2986819694079541C9C618854D3E9C5
:1052D0000621914206D19A68937803F03B0343F08C
:1052E000040393705DF8044B7047E070E4E700BF7F
:1052F00000600040C802002010B5EFF30384103CAA
:105300000A4B64B2012153F824008268937803F0B9
:1053100003039370FFF762FFC034054B53F824205A
:105320006FF3104243F8242010BD00BFC8020020D4
:105330000060004010B5EFF30384103C0C4B64B2E6
:105340004FF0840C53F8240083689A7802F003022B
:105350009A701A7983F804C00421FFF73FFFC03424
:10536000044B53F824206FF3104243F8242010BD5F
:10537000C80200200060004003685969A1B190F89C
:105380002D3070B5044603F0FF0563B98A68038CBD
:1053900096680868A1692A46B047E269C4E90852DC
:1053A000012384F8333070BD704700BF70B5866B41
:1053B00082B004460B466D463EB396E8030085E88E
:1053C0000300E26B3371236832605A6912B194F8BA
:1053D0002D10A1B19B6913B194F82D2052B9636BC4
:1053E00030469847A36B1BB195E8030083E80300A0
:1053F00002B070BD9A68186813699847EFE7936820
:1054000010681B6998472368E4E72E46D9E700BF78
:10541000EFF30383103B5BB2044AC03352F823100E
:105420006FF3104142F82310704700BF0060004046
:1054300070B5EFF30383103B5BB2614AC03352F89F
:1054400023106FF3104142F82310EFF30383103B56
:105450005C4A5BB252F823402269137BC3F300001D
:10546000DB072CD494F82C3094F82A10994216D0EB
:1054700094F82D1009B1022B41D02046FFF77CFF94
:10548000236994F82820DA7094F82B2094F82C30B3
:10549000013A013384F82B2084F82C3070BD94F845
:1054A000333003F0FF053BBB236A93BB94F82E30E7
:1054B00063B352210123D17284F8303070BD94F867
:1054C0002D308BB194F8313073B9636AA169527988
:1054D000CA54D4E9082394F82E10013A0133C4E9E0
:1054E000082379B12269E4E70020012154232062D6
:1054F00084F82F10D37270BD84F8330070BD52232E
:10550000D37270BD23695422DA7270BD5423D372F2
:1055100070BD94F82D1041B9616AA069013B405CEF
:105520000131C4E90831D07070BD94F83110002900
:105530002ED0216884F831504869002838D0896914
:10554000002935D0E069022832D98E68831E0868A8
:10555000B668F42191709BB2A2692946B0472268CF
:10556000E3695269916810688E68023B9BB22A46D3
:105570002946B047E36922690220023BC4E90803D7
:10558000012184F833100023FF209372D070CBE701
:10559000636AA1695279CA54D4E90832013B0132E5
:1055A000012BC4E90832226904D0FF20D070BBE788
:1055B000012BE8D12023FF209372D070B4E700BF05
:1055C00000600040C802002010B582B0EFF30383F2
:1055D000103B374A5BB252F823000269D37A6FF36B
:1055E000C303D37290F82F30ABBB90F82A1003F0AE
:1055F000FF0C90F82C3099421BD1036A5BB990F8EC
:105600002D1090F83040002914BF02210321A4B3CB
:10561000D372FFF7CBFEEFF30383103B5BB2254A57
:10562000C03352F823106FF3104142F8231002B038
:1056300010BDB3B9012929D090F829C00021D17239
:1056400082F803C090F82B200133013A80F82B2018
:1056500080F82C30DFE7F023D3720121FFF7A6FE9C
:10566000D9E790F82D4004F0FF016CB1022BE5D191
:1056700090F829C04CF0010CE0E7F023D372937846
:1056800003F0CF039370C4E78C46D7E70190FFF790
:1056900073FE019890F82A30012B05D190F828C0AC
:1056A000026990F82C30C9E7026990F82C30C3E702
:1056B000C802002000600040F0B583B0EFF303841F
:1056C000103C154B64B253F82450EF68BFB16A68C0
:1056D0002B6992F90D20121B18BF01226E46C3B12F
:1056E00093E8030086E803001A706A695A60184656
:1056F000B8472B691BB196E8030083E80300074B0A
:10570000C03453F824206FF3104243F8242003B030
:10571000F0BD3346E8E700BFC8020020006000404B
:10572000EFF30383103B5BB20649074A51F823109D
:105730000120C033087252F823106FF3104142F871
:1057400023107047C802002000600040C8B2012347
:1057500083404AB91A040B0A5B0103F1804303F545
:10576000802300209A6070479AB2F4E738B5048825
:10577000002C4DD043680021043303EBC40040F2F9
:1057800002450C4640F2034C40F2044E0FE06245E5
:1057900030D153F8042C02F0B852B2F1807F14BF1C
:1057A00041F0020144F002040833834211D01A8808
:1057B000AA42ECD153F8042C02F0B852B2F1807F27
:1057C00003F1080314BF41F0010144F001048342D6
:1057D000EDD1C943CDB2012002F02CF80D4B93F866
:1057E000BB2414432C4083F8BB440120BDE838405F
:1057F00001F0F0BF7245D7D153F8042C02F0B85233
:10580000B2F1807F0CBF44F0040441F00401CBE707
:10581000FF25E0E700E0014070B584B002AB01264F
:1058200068460C461546ADF80C100292ADF80060C3
:105830000193FFF79BFFEFF3108286F310881D4959
:105840000B681BB91C48C3704023C3700B6801333D
:105850000B6082F31088EA034FEA1423E4B219D4F0
:105860001B01164A234442F82350EFF31082012310
:1058700083F310880B6813B10B68013B0B600B6856
:105880001BB90D498020CB70C87082F310880020AE
:1058900004B070BD04EB0310084A52F820606FF3A7
:1058A000104642F8206025F4803642F820601B0143
:1058B000D7E700BFC4020020000D044000080440E8
:1058C00070B5C36A84B004468C46164601AD9BB1E0
:1058D00093E8070085E8070083F808C0226B1846A4
:1058E000C3E90026A26A9047E36A1BB195E8070066
:1058F00083E8070004B070BD2B46EDE78268012302
:1059000070B580F820300226B323D37180F821606F
:10591000537904466FF300035371C2690D46FFF7D4
:10592000CFFFA368DE705A7942F001025A7194F8F1
:105930002120012A16D094F8212002B170BD052D36
:10594000FCD194F82320002AF8D194F821201AB928
:105950005A7A02F0F3025A72BF210122D97184F8F7
:10596000232070BD042DECD0082DE4D1E9E700BF61
:1059700030B583B0EFF30383103B5BB2454AC033CD
:1059800052F823106FF3104142F82310EFF3038312
:10599000103B5BB2404A52F8234094F82230B3B92E
:1059A000A368012284F82220DA7CD2B28DF8052087
:1059B0009DF8052012F0010F5A7A14BF02F0F70289
:1059C00002F0F3025A72AC22DA7103B030BD94F8DF
:1059D00020304BB9A3681B7A13F0080F204614BF80
:1059E00008210421FFF78AFF2269A2B9A368D97CA4
:1059F000C9B28DF806109DF80610197941F0100112
:105A00001971197941F008011971197962F30411BA
:105A1000197103B030BDA369A1689A4209D0E26848
:105A2000C97C581CA061D154E3690133E36103B020
:105A300030BD022584F821504B79E2696FF30003F1
:105A40004B7120460621FFF73BFFA3682169DD70FB
:105A50005A7942F001025A7191B9DA7CD2B28DF8CA
:105A600007209DF807201A7942F010021A711A795E
:105A700042F008021A711A7961F304121A71A4E74C
:105A8000A269E168DB7C501CA0618B54E36901339F
:105A9000E3619AE700600040C802002038B5EFF3E8
:105AA0000383103B5BB2244AC03352F823106FF3D8
:105AB000104142F82310EFF30383103B5BB21F4AFF
:105AC00052F8234094F8203093B194F8213003F039
:105AD000FF0263B9A369216999420ED0E269E068C7
:105AE000A168C05C887401330132C4E9063238BD54
:105AF00005212046FFF702FFE7E723680E4993F9E7
:105B00000E3003F1C000002B51F8205062F3104515
:105B100041F8205009DB5A09094803F01F0301210D
:105B2000603201FA03F340F82230A268D37943F0DF
:105B30004003D37138BD00BF00600040C8020020A0
:105B400000E100E038B5EFF30383103B204A5BB27D
:105B500052F82340A1680B795807C3F3800217D588
:105B6000CA796FF38612C023CA7101E0013B02D0EB
:105B7000CA795206FAD4EFF30383103B5BB2154A9D
:105B8000C03352F823106FF3104142F8231038BD90
:105B9000022584F821504B7962F300034B71E269CE
:105BA00007212046FFF78CFEA168CD704B7943F0AA
:105BB00001034B7194F82130002BD1D1A369E26924
:105BC000E0680132C05C88740133C4E90632C7E77B
:105BD000C80200200060004010B582B0EFF30383DC
:105BE000103B3E4A5BB252F8230083685A7A910711
:105BF0004DD1D1B211F00C0F3CD0012280F82420FD
:105C000090F82120012A65D0016982699142C26918
:105C100088BF02F1FF324FF0030188BFC2614FF02D
:105C2000000EA024DC7180F820E080F822E093F8D8
:105C300005C06EF3000C83F805C090F82440002CDA
:105C400043D1DF241C709F241C7000240223C461F4
:105C500080F82130FFF734FEEFF30383103B5BB293
:105C60001F4AC03352F823106FF3104142F823103B
:105C700002B010BDCA06EFD5DA7CD2B28DF807208B
:105C80009DF80720DA7902F0EF02DA71E4E70022EA
:105C9000A02180F82420D97180F8202080F82220CB
:105CA000597962F30001597190F8241081B9DF210C
:105CB0009F2219701A7000210223C26980F82130D6
:105CC000C1610121FFF7FCFDC6E783F809E0BCE7ED
:105CD0005A72F0E7C2690221A1E700BFC8020020A2
:105CE0000060004030B5836B83B004460A466D46C1
:105CF000A3B193E8030085E80300E16B1A71626BBE
:105D0000196018469047A36B1BB195E8030083E820
:105D10000300002384F82B3003B030BD2B46ECE7A2
:105D2000036902682DE9F04F1F241C705F241C706A
:105D3000DF241C70546A55682279564EDFF8608162
:105D400042F0E0021A74E27842F0E0025A74A2785B
:105D5000120102F0700242F008029A702278647810
:105D6000012A0CBF0522042242EA4402D2B2DA70B0
:105D7000494A95420CBFF72277225A710027B32275
:105D80009F71DA7191F9112091F80DC0B4184FEAA2
:105D90000C1C5FFA8CFC84F800C302F1C00548F8C3
:105DA00022003E4C4FEA521E54F825904FEA8E0EC8
:105DB00067F310490EF1604E44F825900EF5614EE0
:105DC000012502F01F0205FA02F2CEF88021CEF87A
:105DD000002091F90F2006EB020E02F1C0098EF8A7
:105DE00000C348F822004FEA521E4FEA8E0E54F8C4
:105DF00029B00EF1604E0EF5614E02F01F0205FA59
:105E000002F267F3104B44F829B0CEF88021CEF8A7
:105E1000002091F9102006EB020E02F1C0098EF865
:105E200000C348F822004FEA521E54F829B04FEA46
:105E30008E0E0EF1604E0EF5614E02F01F0267F3FA
:105E4000104B44F829B005FA02F2CEF88021CEF8C2
:105E5000002091F90E100E444A0986F800C348F854
:105E6000210001F1C00001F01F018D4054F8201005
:105E7000920002F1604267F3104144F8201002F5ED
:105E800061424FF09F0AC2F88051156083F800A06C
:105E9000BDE8F08F00E100E040420F0000600040EC
:105EA000C802002010B483B0EFF30383103B5BB251
:105EB000484AC03352F823106FF3104142F82310C0
:105EC000EFF30383103B444A5BB252F8233093F85C
:105ED0002D20BAB99A69022A1A699EBF117941F038
:105EE00040011171D969012917D0D27CD2B28DF845
:105EF000072001219DF8072083F82D1003B05DF8DD
:105F0000044B7047DA69002AF8D0032A0ED0022A1F
:105F10004ED0012A21D019690DE0117941F010010C
:105F20001171117941F008011171DEE719690A79DF
:105F300042F040020A711A6A5869C97C8154D3E957
:105F400007210131013AC3E90721002AD6D1196995
:105F50000B7962F386130B71D0E793F82A1089B39B
:105F600019681E4C91F90F104809203001F01F01EB
:105F700002FA01F144F82010BFF34F8FBFF36F8F87
:105F80001969C87940F08000C871087940F01000A4
:105F9000087108794FF0040C6FF3C300087181F8A1
:105FA00001C048796FF30000487183F82C20C2E7E4
:105FB00019690A7942F010020A710A7942F008025E
:105FC0000A71B8E719694A7A082002F0F7024A72A2
:105FD0004870B0E700600040C802002000E100E027
:105FE000EFF30383103B5BB2354AC03352F8231002
:105FF0006FF3104142F82310EFF30383103B5BB2C1
:10600000304A52F8232092F82730002B37D192F8EB
:1060100029309BBBD36910B4002B42D11069C179E0
:106020006FF3C711C023C17101E0013B02D0C179F8
:10603000C909FAD11368224A93F9103003F1C0015B
:10604000002B52F821406FF3104442F8214009DB45
:106050005A091D4C03F01F030121603201FA03F3BA
:1060600044F82230C3795DF8044B43F04003C37118
:106070007047022909D192F8300030B9704792F880
:106080002610032992F82810F3D0106992F824C042
:1060900080F812C00131013B82F8281082F82730C5
:1060A0007047D2E90404116A013B645C84740131D5
:1060B000C2E90731002BB2D05DF8044B704700BF36
:1060C00000600040C802002000E100E010B4EFF3DF
:1060D0000383103B2B4A5BB252F8233093F82920FC
:1060E0001AB193F82720012A47D0DA69D2B1196989
:1060F000CA796FF38612C023CA7101E0013B02D056
:10610000CA795206FAD4EFF30383103B5BB21E4AFE
:10611000C03352F823106FF3104142F823105DF89A
:10612000044B704793F82A10F9B11968174C91F98C
:106130000F10480920304FF0010C01F01F010CFA3C
:1061400001F144F82010BFF34F8FBFF36F8F19692F
:10615000C87940F08000C87104204870487962F323
:106160000000487183F82CC0C2E719694B7A0822F5
:1061700003F0F7034B724A70BAE793F83020002A15
:10618000B3D1B4E7C80200200060004000E100E0A5
:1061900038B5EFF30383103B4B4A5BB2E02152F872
:1061A000234023695A7A5972D506D0B202F003010E
:1061B0001FD55A78520648D4E269012184F82B1081
:1061C000002A5ED000252168DD712046FFF7A8FD7A
:1061D00094F82610A2692369E56184F828102262E8
:1061E00084F82C50B322DA7101212046FFF77AFDA2
:1061F00012E00029E0D101071BD594F82B20002ADA
:1062000048D194F82910B322002914BF0221032198
:10621000DA712046FFF766FDEFF30383103B5BB2B4
:106220002A4AC03352F823106FF3104142F823106A
:1062300038BD94F82C20002AEED04207ECD594F813
:106240002B200121002AE4D1DBE70029B4D15A78C0
:106250005506C2F38011CED584F82B105A7A2168E6
:1062600002F0F702496A5A72082058700A78012A27
:106270000CBF03220222DA705A7942F001025A71ED
:10628000CAE794F82C20002A9CD194F82B20002AED
:10629000A8D097E7E2696AB1002294F82600A169C4
:1062A000E26184F82800216284F82C20B322DA719C
:1062B0000121AEE794F82C20002AEDD194F82B2090
:1062C000002AF3D0E8E700BFC802002000600040C9
:1062D00010B582B0EFF30384103C164B164964B23C
:1062E00053F8242050790B5C03F00303032B0FD0E9
:1062F000C03451F824306FF3104341F824309368D0
:1063000023B1D268CDE900206846984702B010BD9D
:10631000936823B1D268CDE9002068469847064BC0
:10632000C03453F824206FF3104243F8242002B005
:1063300010BD00BFC8020020006000400346D3E942
:106340000223002053607047D0E90123D26930B4A2
:10635000D2E9011444F00044D0685C61D2E90454ED
:1063600040F0004041F000419861196100205D62F9
:106370009C6230BC704700BF002800DA704710B440
:1063800000F16043114C03F561430901C9B283F880
:10639000001344F820200E4900F1C00200F01F0C49
:1063A000400951F82240800000F1604000F5614052
:1063B0006FF31044012341F8224003FA0CF3C0F8B4
:1063C00080315DF8044B0360704700BFC8020020B5
:1063D0000060004070B5836984B004468C46164660
:1063E00001AD9BB193E8070085E8070083F804C07E
:1063F000E2691A609E60184662699047A3691BB102
:1064000095E8070083E8070004B070BD2B46EDE770
:1064100030B4D0E9012310785A6E0C4D0C4C03288F
:1064200098BF01328A60D86A2A6A2368C2F3026C74
:1064300003FA0CF302F00702C0F3C350D340C34089
:106440000122002030BC4B600A70704700E0014020
:106450005403002090F800C0486EBCF1030F98BFB1
:1064600001300AB1824227D310B4019C496BE40782
:1064700054BF01F01F01C1F30441BCF1030F09D95E
:10648000090981F0010172B9E9B902225DF8044BF2
:106490005A60704701F00C01A1F10401B1FA81F1D9
:1064A0004909002AF0D0824201D30029EDD103220C
:1064B0005DF8044B5A607047BCF1030F98BF02F1BE
:1064C000FF321A6070470028DFD0F0E72DE9F04175
:1064D00084B0144606460F464FF0FF330022009466
:1064E000039202933A4602ABD0E90101FFF7B2FFF3
:1064F000B368039A1D6B04F003085AB914F0080F2F
:106500000CBF02210421A0071DD503EB81010298D5
:10651000C864086561061ED5196CB8F1010F41F415
:106520008001196406D025F4403545EA0245B8F1EA
:10653000000F03D025F0407545EA026500201D6379
:1065400004B0BDE8F0814144123103EB81010298AF
:1065500048606106E0D4B8F1010F12D025F440354F
:10656000022C45EA0245E2D1002AE3D00120009046
:1065700019463A4602AB7068FFF76CFF039AB3689E
:10658000D8E7022CD6D1002AD4D0EFE72DE9F04786
:106590000B7C0D46012101FA03F2C260920716BF7F
:1065A000002201740274D5E9052103F5800303F587
:1065B000F0631B0242610022EE694560C0E90621DA
:1065C00084B004468360EFF31080012383F31088C6
:1065D000854B297C0229D3F8081134BF6FF02007BE
:1065E0006FF040073940C3F80811D3F8083180F341
:1065F0001088A3686F684FF425411960DA62DA6386
:106600009A642A78297A032A4FEAC15107F1FF3C9C
:1066100000F0D58084BF41EA0241BC46D6E9068E2F
:10662000D9624FF0004119610020596199614FF022
:10663000FF315862039098620291C3F81C80C3F83E
:1066400020E0D6F82C80C3F868C0C3F864C0002AE4
:1066500040F0A080790801390291404601224FF0B4
:10666000030C5965996500285DD095F800E0B76A7C
:10667000002F71D0B97897F80390090641EA0971A3
:1066800097F8049041EA09419963B968C3F88C10FE
:10669000002965D0012148B997F81C9097F81BA0F4
:1066A0004FEA496949EA4A2948EA0908C3F88810C3
:1066B00040B996F8211096F82000490741EA403188
:1066C00048EA01084FF4AA01BEF1010F196402D192
:1066D0000021D9641965E168D960C3F83480C3F832
:1066E00030C01A63697C95F912002246FFF744FE18
:1066F00096F8221096F924002246FFF73DFE96F800
:10670000231096F925002246FFF736FE2FB139787F
:1067100097F901002246FFF72FFE344B236000203B
:1067200004B0BDE8F0873178F9B995F800E0B178A8
:1067300000299CD0F778BEF1020F4FEA071141EA19
:1067400087113FD04BD903273943B76A48EA01483C
:1067500048F08078002F8DD19F63C3F88870A7E739
:10676000F968003918BF012195E795F800E07178C4
:10677000BEF1020F4FEA81194FEA011724D029D93F
:10678000032148EA010848EA090848EA070848F4EA
:106790008078CCE7012A19D000901946EA68606831
:1067A00002ABFFF757FEDDE90210020442EA006285
:1067B00042F0030CA368F06A42F0010251E741F491
:1067C00080312BE70927BFE70921DAE740464FF080
:1067D000030C46E7002914BF09210621D1E7002F49
:1067E00014BF09270627AFE7006F04405450470045
:1067F00030B4436893F91220DB69002A11DB510998
:106800002E4D02F01F0C2031012404FA0CF445F83F
:106810002140BFF34F8FBFF36F8F2949002441F808
:10682000224093F92420002A11DB5109234D02F064
:106830001F0C2031012404FA0CF445F82140BFF369
:106840004F8FBFF36F8F1E49002441F8224093F908
:106850002520002A11DB5109184D02F01F0C2031B0
:10686000012404FA0CF445F82140BFF34F8FBFF325
:106870006F8F1349002441F822409B6AA3B193F91A
:106880000130002B10DB03F01F045A090121A14045
:1068900020320A4C44F82210BFF34F8FBFF36F8FA2
:1068A000074A002142F823108268C1680023036070
:1068B00030BC184691605363704700BF00E100E0B0
:1068C000C802002030B4EFF30383103B5BB2184AD8
:1068D000184C03F1C00152F821006FF3104042F848
:1068E000210054F82300446894F800C0BCF1010F63
:1068F00015D1D0E90254AC600024AC64EC642C6582
:1069000052F8215064F3104542F821505A090A49BF
:1069100003F01F0360320CFA03F341F8223043699D
:1069200023B1002230BC1146FFF754BD30BC704784
:1069300000600040C802002000E100E01E4B10B4DF
:10694000C3600B7803F001034370EFF3108C012454
:1069500084F31088194BD3F8082122F48012C3F86D
:106960000821D3F808318CF31088EFF3108C84F3EE
:1069700010884278D2B9C468237962F386132371F0
:106980008CF310884A684B78D278C468D201DB0156
:10699000D2B2DBB26271A3710123E3710A78027093
:1069A000074B43605DF8044B00207047C2681379C1
:1069B0006FF3C7131371E3E700E00540006F044075
:1069C00000434144C3684278002023F81210704706
:1069D000EFF31083012282F310884278C1683AB93C
:1069E0000A7942F040020A7183F310880020704750
:1069F0000A7942F080020A7183F310880020704700
:106A0000EFF31081012383F31088427842B9C06804
:106A1000037962F38613037181F3108800207047B5
:106A2000C26813796FF3C713137181F310880020C4
:106A3000704700BFEFF3108C012383F31088437875
:106A400073B9C268117963F386111171117A63F316
:106A5000861111728CF3108800234360184670472A
:106A6000C3681A796FF3C7121A711A7A6FF3C712D3
:106A70001A72EFE7F0B5076A8BB0064667B3BE46F9
:106A80008C46BEE80F006C460FC4BEE80F000FC472
:106A90009EE8030084E80300BCE80F003D460FC5F4
:106AA000BCE80F000FC59CE803008EE80300F36903
:106AB00038469847336A6BB1EE469C46BEE80F00F5
:106AC000ACE80F00BEE80F00ACE80F009EE8030042
:106AD0008CE803000BB0F0BD0F46E8E730B58BB093
:106AE000EFF30383103B5BB22E4AC03352F82310FE
:106AF0006FF3104142F82310EFF30383103B5BB2B6
:106B0000294A52F8235000212822684606F096FFB1
:106B10006C6894F84D380020DBB284F84D08ADF86D
:106B20000430B4F84218C1F30012C90638D543F056
:106B30002003ADF80430022394F8532884F8533826
:106B400094F8523803F01F03D2B2E11884F85328A6
:106B500091F8202860F3820281F820282A681268C0
:106B6000009269466A6A039328460492FFF782FFFF
:106B7000B4F84238DB0611D52B681A69127D6AB168
:106B800093F91530002B09DB5A09084803F01F035D
:106B90000121403201FA03F340F822300BB030BD3E
:106BA0001346DBE700600040C802002000E100E07F
:106BB0002DE9F0418AB0EFF30383103B5BB23F4A0B
:106BC000C03352F823106FF3104142F82310EFF353
:106BD0000384103C3A4B66B2002253F82600D0E9F9
:106BE00000E595F8533885F8532895F8527807F062
:106BF0001F07DBB207F1200285F85338130104F0B8
:106C0000FF0455F803C0CCF380718DF81910E958D2
:106C1000DEF810301B7B43EAD17303F001038DF8DB
:106C20001830002B46D1CCF38A4305EB02120593B2
:106C30009188C1F3030301F00F0108298DF81A3080
:106C400035D908218DF81A1008AA002305EB07187A
:106C500008EB030C01339CF806C202F801CB8B420F
:106C6000F6D3DEF8003003972F440093442387F8CF
:106C70002038002307934FF48063ADF80430694651
:106C8000436A0493FFF7F6FEB5F84238DB070BD5ED
:106C9000002E09DB76090B4A04F01F04012340365D
:106CA00003FA04F442F826400AB0BDE8F081002956
:106CB000CAD1D6E72CF06043B7E700BF00600040C0
:106CC000C802002000E100E070B58AB0EFF3038352
:106CD000103B5BB2214AC03352F823106FF31041CE
:106CE00042F82310EFF30383103B1D4A5BB20126E9
:106CF00052F823506C6894F8532884F8536894F839
:106D00005238D2B203F01F0384F853280393E218D9
:106D10004FF40063ADF804302B681B6800936B6A76
:106D20000493002382F82038694682F820382846E8
:106D3000FFF7A0FEB4F842389B070CD52B6893F9F7
:106D40001730002B07DB5A09064903F01F034032B6
:106D50009E4041F822600AB070BD00BF0060004054
:106D6000C802002000E100E08268117A01F0010110
:106D7000137AC3F340039942FAD143681978012981
:106D800008D1C16893F810C004484B1E9BB240F86C
:106D90002C101380F1231372002070477C02002016
:106DA000D0E90223013BF1219BB213800020117234
:106DB000704700BF062070478268117A01F0010118
:106DC000137AC3F340039942FAD143684FF0F40CAD
:106DD000002182F808C0117393F9123013F1210FCA
:106DE00003D100230360184670478B421ADB5A090F
:106DF00010B401210F4C203203F01F0301FA03F3FA
:106E000044F82230BFF34F8FBFF36F8F43680A4AB5
:106E100093F912305DF8044B42F82300002303601D
:106E200018467047044A42F82300002303601846BE
:106E3000704700BF00E100E0C8020020F0B40B7C06
:106E400003F1401303F500631B02C0E90113EFF3E4
:106E50001085012383F310880C7C394AC4F10304A4
:106E6000A340D2F8084124EA0303C2F80831D2F85B
:106E7000083185F31088826800231372137AC3F3F4
:106E8000400C9B07FAD4CC6982F80AC0E3782678D4
:106E90000D7A247903F00703002E42D1002D47D14B
:106EA00014734C684768002696735372631E95727C
:106EB0009BB2C4603D7C1380224B43F8254091F97E
:106EC0001230B34222DB4A7C03F1604404F5614492
:106ED0001201D2B284F800231B4A1C4C42F8230052
:106EE00003F1C0055A0954F82570920002F160427E
:106EF00066F3104744F8257002F5614203F01F0362
:106F0000012404FA03F3C2F880311360D1E905418A
:106F100000230F4A0461C0E905310260F0BC184645
:106F20007047502E06BF43F0500365463343B7E722
:106F300085F0020543EA0513DBB23546B0E700BF32
:106F4000006F04407C020020C80200200060004066
:106F50005447410010B4826892F808C00CF0010C4C
:106F6000137AC3F340039C45FAD14368C468D869D7
:106F70008C60007850280BD11B7C2648013B50F8D0
:106F800023300BBB00205DF8044B4B60087070474A
:106F9000537AC3F302105B060FD41F4A1F4B126AC9
:106FA0001B68C2F30264A340C2F30222D34000284C
:106FB000E8D080F00200C340E4E7927A4FF4004347
:106FC00002F00702D340DDE712F8F70CC0F3021419
:106FD0004006A2F5807216D40F48104A006A126863
:106FE000C0F3026C02FA0CF2C0F30220C24014B1EA
:106FF00084F00204E2400020B2FBF3F35DF8044B9E
:107000004B6008707047907A4FF4004200F0070020
:10701000C240F0E77C02002000E001405403002061
:10702000F0B585B0EFF30383103B5BB203F1C00111
:107030001B4A1C4C52F821006FF3104042F821000B
:1070400054F82340D4E901120978137A0129DBB2FC
:1070500004D1F42103F0F003117213722769B7B160
:10706000656901AECDB195E8070086E807009B068B
:1070700044BF00232B71A3692B602846B84763697E
:107080001BB196E8070083E80700A268137ADBB219
:1070900003F00F03137205B0F0BD3546E7E700BFFC
:1070A00000600040C8020020034600201A689B8A46
:1070B0001380704703681B88C3F3C03300200B7034
:1070C000704700BF03681031002033F8113013807F
:1070D000704700BF43682DE9F041D1E901250C68F4
:1070E0005E6903681FFA84F8A3F804801FFA82F827
:1070F000A3F8148022F0405C1FFA85F824F0405E6B
:1071000025F040572243A3F808804FEA1C4C3F0C5F
:107110004FEA1E4812F0405FA3F80680A3F816C09D
:107120005F8159D1CA68002A00F0988015892F051F
:1071300022D5D2E900C7B2F80A80A3F89050A3F88C
:107140009C80B2F80C80A3F89E801FFA8CF8A3F8FC
:107150009480CCF30B484FEA1C7CA3F8968083F80C
:1071600092C01FFA87FCA3F898C0C7F30B4C3F0FDF
:10717000A3F89AC083F89370AF051FD40A8AA3F8C6
:107180009050A3F88020F27892B11A88BEFA8EF15E
:107190001FFA82FE2EF01F0E0EF11F0E828AAEEB3A
:1071A000010E1FFA8EFE4EEA0202A3F800E0828270
:1071B0002B4BC0E903340020BDE8F081977C92F8A6
:1071C00013C047EA0C0783F8A670D789128AA3F880
:1071D000A870A3F8AA20D1E7224FD7F82080224F29
:1071E0003F68C8F3026C07FA0CFCC8F302181F4F83
:1071F0002CFA08FCA7FB0C7C4FEA9C1C1C4F41F2AC
:10720000883808FB0CFCA7FB0C7C4FEA9C4C0CF16B
:10721000010CBCF1070F38BF4FF0070C12F080577C
:107220000AD05FFA8CF715F0805F83F8DE7040F2C9
:10723000011708BF4FF48077920009D55FFA8CFCE4
:1072400047F40077AA0083F8DFC048BF47F0020781
:10725000CA68BFB25F82002A7FF468AF15468DE727
:107260004344415200E0014054030020D34D6210DA
:1072700083DE1B432DE9F8430B880C465B02226931
:107280006669C968026203F1804303F5B8230022EE
:10729000036081614460C261317962790546A078FA
:1072A0008F074FEA0223F17843EA403354BF43F09B
:1072B000400343F48863002900F0DF8043F4207327
:1072C000022A08BF764A9BB208BF32F821C0AB82BF
:1072D00018BF4FF0000C2279E178707896F800E042
:1072E000D20342EA410242EA4010EFF31088012142
:1072F00081F310886B4F2288D7F80891C2F11002F1
:1073000001FA02F229EA0202C7F80821D7F8082197
:1073100088F3108847F6FF572A6880B23B401380F5
:10732000A2F810C0D08182F80CE03379980700F100
:10733000AD8082F88A3094F90630002B22DB227A65
:1073400003F1604101F561411201D2B281F80023DD
:10735000554A564942F8235003F1C0005A0951F8E2
:107360002070920002F160426FF3104741F82070E4
:1073700002F5614203F01F03012101FA03F3C2F891
:107380008031136094F90730002B22DB627A03F11D
:10739000604101F561411201D2B281F80023424AF5
:1073A000424942F8235003F1C0005A0951F82040E5
:1073B000920002F160426FF3104441F8204002F560
:1073C000614203F01F03012101FA03F3C2F8803187
:1073D000136096F90630002B22DB327A03F160410C
:1073E00001F561411201D2B281F800232E4A2F49E2
:1073F00042F8235003F1C0005A0951F8204092008E
:1074000002F160426FF3104441F8204002F56142FE
:1074100003F01F03012101FA03F3C2F88031136066
:1074200096F90730002B22DB727A1F4803F1604186
:1074300001F561411201D2B281F8002340F82350D6
:1074400003F1C001194A52F821006FF3104042F8CD
:1074500021005A09920002F1604202F5614203F0F4
:107460001F03012101FA03F3C2F880311360104BAE
:10747000AB6000202861BDE8F883002A7FF420AFCC
:1074800043F400439BB2AB82944624E743F00303EA
:1074900082F88A30084600F03DF92A68337948E7D7
:1074A0008C080100006F0440C8020020006000400A
:1074B0004344415270B40021C0E90211436893F97A
:1074C00006205C698A4211DB5309364E203302F0F4
:1074D0001F0C012505FA0CF546F82350BFF34F8F1A
:1074E000BFF36F8F304B43F82210436893F9073096
:1074F000002B11DB5A092B4D03F01F0C2032012108
:1075000001FA0CF145F82210BFF34F8FBFF36F8FD4
:10751000254A002142F8231094F90630002B11DB94
:107520005A09204D03F01F0C2032012101FA0CF101
:1075300045F82210BFF34F8FBFF36F8F1A4A002117
:1075400042F8231094F90730002B10DB03F01F04DE
:107550005A090121A1402032124C44F82210BFF3F5
:107560004F8FBFF36F8F104A002142F8231003683A
:1075700000221A821A80EFF31084012383F310880B
:1075800040680A490088C0F110008340D1F8080122
:107590000343C1F80831D1F8083184F3108810464C
:1075A00070BC704700E100E0C8020020006F04409A
:1075B000064B074993F826001A6A51F8203005490E
:1075C000C2F30262D3400B60704700BF00E001408D
:1075D000480200205403002038B5434B434C444834
:1075E00044494AF20355A3F8FE530022424DA0F845
:1075F000002121604FF4004193F82600C4E90151B5
:10760000C4E90321196A626154F820203B4DC1F39B
:107610000261CA40082009212A6083F8130483F814
:10762000A21093F88024002A55D02F4B002283F813
:10763000812483F8802493F8A0208AB193F836201F
:10764000002A3FD0284A92F8A030D806C3F3001190
:10765000F9D4254882F8A01090F8A030D906FBD4C0
:10766000214B002283F8362093F83C20D207FBD52B
:107670000121002283F8311083F82620204A1A6263
:1076800093F8262054F822001C6A194AC4F30264B5
:10769000E04028604FF0040C842083F83EC083F85B
:1076A0003E004FF4254083F8D010A3F8FE03A2F863
:1076B0000411B2F804319BB2002BFAD10123A2F8D5
:1076C000003138BD93F83C20D207BBD493F83C205E
:1076D000D207F7D5B6E7012183F8801440F2C44001
:1076E00000F018F8A1E700BF00E0014048020020C8
:1076F00000C00140006CDC0200127A00540300203C
:1077000000010110704700BFA0F101000028FBD16B
:10771000704700BF30B5144D144A00FB01F14FF41F
:107720007A732868B2FBF0F2A1FB03C44FF0FF307C
:107730004FF0000E60457EEB040407D3BCFBF2F073
:10774000800878B1BDE83040FFF7DEBF9200B1FBA2
:10775000F2F1A1FB031388427EEB0303F2D3084648
:107760000028EFD130BD00BF5403002000CA9A3B6F
:107770000B4B70B5B3F840510A4E0024ADB225FA58
:1077800004F3DB07E0B203D556F8243003B1984781
:107790000134102CF3D1024BA3F8305170BD00BF5F
:1077A0000060004084020020084B10B4084C03F134
:1077B000200C5842C21813F8011FC032634544F828
:1077C0002210F7D15DF8044B704700BF481201004A
:1077D00000600040EFF31081012383F31088124B07
:1077E00033F8102092B22AB133F81020013A92B245
:1077F00023F8102033F810309BB293B90B4A10B421
:10780000B2F8FE330A4C9BB234F8100043F425431F
:1078100023EA0003A2F8FE3381F310885DF8044BDD
:10782000704781F3108870474803002000E0014052
:107830009808010030B4EFF31081012383F310881E
:107840000E4A32F810309BB26BB90D4C0D4DB4F8A6
:10785000FE3335F810C09BB243EA0C0343F42543D2
:107860009BB2A4F8FE3332F8103001339BB222F8F9
:10787000103081F3108830BC704700BF48030020EF
:1078800000E00140980801000B4A08B50346106863
:1078900040B10333094923F0030303448B4204D866
:1078A000136008BD06481060F3E706F063F80C2388
:1078B00003604FF0FF3008BD50030020007B002024
:1078C000801A002000BE704708B500F005F8FCF7EC
:1078D000D9FCFEE7704700BF70B5464B464A4748A3
:1078E0004FF47004C3F888404AF2025198600123B3
:1078F000A2F8FE1382B082F81F3492F8B134DB068E
:10790000FBD500204FF425460446A2F8FE63FFF79E
:10791000E1FFFFF761FE8DF8074001209DF8073079
:10792000FFF788FFEFF31081012585F31088344BB2
:10793000D3F8042122F00042C3F80421D3F8042133
:1079400081F310882F4A1168C1F300018DF80710E8
:107950001168C1F300018DF807101268C2F300022C
:107960008DF80720EFF3108185F31088D3F80421F8
:1079700042F00042C3F80421D3F8043181F31088A7
:107980002846FFF727FF2846FFF7A4FF1E4B1F4995
:107990009C801F4A1E8099601E49D9604FF4805117
:1079A000A2F820111C481D4A9D80121A214606F09B
:1079B00045F81B481B4A1C491C4D121A06F01AF8C0
:1079C0001B4B5B1BA3424FEAA30605DD55F8043BA6
:1079D00001349847A642F9DCFFF7EAFD0220FFF7E1
:1079E00079FFFFF7E1FE002002B0BDE87040FFF72D
:1079F00089BE00BF00ED00E000E001400040000053
:107A0000006F044000080440000D0040007B00208F
:107A100000600040007F002060020020801A0020EB
:107A20000000002048020020341501000802002058
:107A300034020020064B074A1B6A1268C3F3026136
:107A400023FA00F08A4000F0070022FA00F07047A5
:107A500000E00140540300202DE9F04782462DED5F
:107A6000028B00200C46FFF7E5FF07EE900AB8EE08
:107A7000678A28EE008A18EE100A05F043FA0646D7
:107A800020460F4605F01CFA04460D4602460B46FA
:107A90003046394605F000FD50B1BCEEC88A0023DF
:107AA0008AED0B8A8AF83430BDEC028BBDE8F08792
:107AB00000223A4B3046394605F07CFA804689462A
:107AC00002460B462046294605F004FD38B14046E3
:107AD000494605F01FFD0223CAF82C00E2E7002208
:107AE0002F4B3046394605F065FA804689460246F6
:107AF0000B462046294605F0EDFC38B14046494684
:107B000005F008FD0423CAF82C00CBE70022254B22
:107B10003046394605F04EFA8046894602460B4605
:107B20002046294605F0D6FC38B14046494605F0C6
:107B3000F1FC0623CAF82C00B4E700221A4B3046A9
:107B4000394605F037FA8046894602460B462046FC
:107B5000294605F0BFFC38B14046494605F0DAFC3D
:107B60000823CAF82C009DE70022104B3046394606
:107B700005F020FA06460F4602460B4620462946E7
:107B800005F0A8FC38B13046394605F0C3FC0A239D
:107B9000CAF82C0086E78AF8000085E70000D03F8D
:107BA0000000B03F0000903F0000703F0000503FD9
:107BB00000220270C0E9012280F83520012280F8FD
:107BC0003620DF22827770472DE9F04704464FF0D8
:107BD00000081F469DF8283080F800802173037547
:107BE000089B0361099B83610B9B03620C9BDFF87D
:107BF0004091C0E90938FF238A4643771546002A99
:107C00003ED184F83520502004F0ECFF4FF6FF738E
:107C1000A0F8423000F12008DF2380F8205080F8DF
:107C2000215080F8225080F82350C0E90955C562E0
:107C3000C0E90E55C0E90C5580F8443080F8453055
:107C400080F8405080F84150C0E91255C4F82880AF
:107C500020222946064605F0F1FE072FA6605AD8D5
:107C6000314ABAF1020FD35D114642D099F80000B3
:107C7000002856D1002B4ED102232777D35548E058
:107C8000012A48D184F83520242004F0ABFF837802
:107C900080F8008068F3020383704378C57003F0B6
:107CA000F80368F306130646437080F8048080F8F2
:107CB000058080F80680A0621C224146083005F04D
:107CC000BDFE012F666026D8184BBAF1020FDA5DAF
:107CD000194602D099F8000028B1012A1BD80223C6
:107CE0002777CB5515E0B2B90222DA5527772570F0
:107CF00011E0012BF3D92777384601F021FE30221D
:107D0000816A404605F076FE384601F019FE036BA5
:107D1000A36101232370002389F800302078BDE897
:107D2000F087012BDAE700BF5A0300205803002038
:107D3000620300202DE9F84F82462DED028B144698
:107D40008B4631B9BDEC028B1146BDE8F84FFFF709
:107D500083BE012939D10820FFF76CFE07EE100A17
:107D6000B8EE478A28EE008A18EE100A05F0CAF825
:107D7000064620460F4605F0A3F804460D46024687
:107D80000B463046394605F087FB38B1BCEEC88A51
:107D900000238AED0B8A8AF8343016E000221A4B51
:107DA0003046394605F006F98046894602460B46BC
:107DB0002046294605F08EFB58B14046494605F05D
:107DC000A9FB8AF834B0CAF82C00BDEC028BBDE8E0
:107DD000F88F00224FF07F533046394605F0EAF81D
:107DE00006460F4602460B462046294605F072FB22
:107DF00038B13046394605F08DFB0323CAF82C0014
:107E0000C9E78AF80000E0E70000E03FF0B52DED9B
:107E1000028B1E460123F7EE007A9E4287B004468D
:107E20000F461546B0EE608A037087EE800A3BD895
:107E3000002A39D14FF0FF31FFF70EFEB5EEC08AB0
:107E4000F1EE10FA37DBDFED1D7AB4EEE78AF1EEE2
:107E500010FA30D8D4ED0B7AF8EE677A67EE887AAC
:107E600017EE900A05F04EF80022154B05F0CCF9FC
:107E700005F050FB206323788BB10F9B04930E9B7E
:107E8000039394F834300293236B0193E36A0093D5
:107E90002A46334639462046FFF796FE2070207862
:107EA00007B0BDEC028BF0BD4FF6FF7229462046AD
:107EB000FFF740FFC2E700232370DCE70000C84261
:107EC0000000594090F835304BB983688BB10122DE
:107ED00011B983F82020704783F822207047012BC6
:107EE00007D143682BB103205A7819B960F3020215
:107EF0005A70704760F30612FAE71FB590F83530F4
:107F00003BB901A98068FEF783FA039805B05DF8D4
:107F100004FB012B05D1406801A90830FFF71AF8CE
:107F2000F3E70020F2E738B585680446B5B12020B4
:107F300004F058FEA368A8649B6CFF221A70DF222D
:107F40005A700022C3E90222C3E904229A70DA704F
:107F50001A711A765A769A76DA761A7738BD38B563
:107F600090F8353004468BB9806808B9002038BDD8
:107F700004F10C01FEF70AFB0546A068FEF7E4F9E0
:107F80000E2D01D0002DF1D10120F0E7012BEDD114
:107F900040680028EAD004F10C010830FEF74EFFDB
:107FA000054660680830FEF7FBFEE9E708B590F883
:107FB00035303BB9806820B1FEF7C0F9B0FA80F0E7
:107FC000400908BD012B06D140680028F9D00830CF
:107FD000FEF7CAFEF2E70020F3E7FFFF73B51E4687
:107FE000012303700023CDE900330D461346DFED76
:107FF000110A9FED110A0A4602210446FFF706FF07
:10800000207015B92046FFF78EFF31462046FFF756
:1080100059FF23785BB12046FFF7A1FF2378184072
:1080200020702046FFF7C2FF237818402070207888
:1080300002B070BD000048420000F54308B590F85A
:108040003530016353B9806838B1003218BF01225E
:10805000FEF73CFAB0FA80F0400908BD012B09D1C7
:1080600040680028F9D0003218BF01220830FEF71E
:10807000A1FEEFE70020F0E708B590F835303BB9F6
:10808000806820B1FEF7B4FBB0FA80F0400908BD6B
:10809000012B06D140680028F9D00830FEF78CFE8D
:1080A000F2E70020F3E7FFFF38B50446FFF7E4FFEF
:1080B000606838B1237F0C4A00252421D55404F090
:1080C000B9FD6560A56875B1237F084AA86C0021D9
:1080D000D15410B1202104F0ADFD5021284604F008
:1080E000A9FD0023A36038BD580300205A030020D7
:1080F00010B50446FFF7D8FF204610BD01F10C0370
:1081000003608B6803B1203343604B688360704722
:10811000836823B11868003018BF01207047406899
:108120000028FBD08068F6E7F0B585B004460F461E
:10813000014601A81546FFF7E1FF2046FFF7E8FFDB
:10814000064610B12046FFF797FF00F057F82A4681
:1081500001A900F01FF9054650B167772EB12046FE
:10816000FFF7FDFE2046FFF721FF284605B0F0BDD2
:10817000DF23A377F2E7FFFF0028A8BF00F16040EC
:108180004FEA0111AEBF00F5614000F00F00034B54
:10819000C9B2ACBF80F800131954704714ED00E069
:1081A00000F1C0020A4B53F822106FF3104143F85C
:1081B000221000F01F024009800000F1604000F52D
:1081C000614001239340C0F880310360704700BFD5
:1081D000006000404309012200F01F0002FA00F095
:1081E0002033044A42F82300BFF34F8FBFF36F8F51
:1081F000704700BF00E100E07047FFFF38B50A4D4F
:108200002B78BFF35B8F13F001040BD1284604F0E9
:10821000FAFC38B1054B28461C6004F000FD044808
:1082200002F0E9FA014838BD640300206803002029
:10823000F98100002AB9304BC031012243F82120D6
:108240007047012A03D1C0312B4B0222F6E7022AE4
:1082500003D1C031284B0322F0E7032A03D1C031F8
:10826000254B0422EAE7042A03D1C031224B052220
:10827000E4E7052A03D1C0311F4B0622DEE7062AB8
:1082800003D1C0311C4B0722D8E7072A03D1C031E4
:10829000194B0822D2E7082A03D1C031164B092214
:1082A000CCE7092A03D1C031134B0A22C6E70A2AB8
:1082B00003D1C031104B0B22C0E70B2A03D1C031D0
:1082C0000D4B0C22BAE70C2A03D1C0310A4B0D2208
:1082D000B4E70D2A03D1C031074B0E22AEE70E2AB8
:1082E00003D1C031044B0F22A8E70F2AA8D1C03117
:1082F000014B1022A2E700BF0060004032B91A4BC8
:10830000C0315D2243F8212001207047012A05D1A8
:10831000C031154B652043F82100F5E7022A03D14F
:10832000C031114B6D22EDE7032A03D1C0310E4B52
:108330007522E7E7042A03D1C0310B4B7D22E1E728
:10834000052A03D1C031084B8522DBE7062A03D179
:10835000C031054B8D22D5E7072A03D1C031024B2E
:108360009522CFE7002070470060004032B9C0314D
:10837000074B1E2243F8212001207047012A05D116
:10838000C031034B212043F82100F5E7002070475E
:1083900000600040F8B50E4601681B4B1F290546DA
:1083A00017469C682CD8336893F91220213201D0EB
:1083B0000120F8BD7268403482B11A7CFFF79EFF3D
:1083C0000028F5D03268082353742B689374A7B93A
:1083D0000E4A44F8232001332B60EAE7B2688AB1E1
:1083E0001A7CFFF7C3FF0028E2D0326808235374D9
:1083F0002B6893740FB9064AEBE744F82370EAE759
:108400000020D6E71046D4E700ED00E0C568000084
:10841000217000002AB9064BC031362243F82120D2
:108420007047012AFCD1C031014B3B22F6E700BF67
:10843000006000402AB9064BC031352243F82120A4
:108440007047012AFCD1C031014B3A22F6E700BF48
:10845000006000402AB9064BC031372243F8212082
:108460007047012AFCD1C031014B3C22F6E700BF26
:10847000006000402AB9064BC031382243F8212061
:108480007047012AFCD1C031014B3D22F6E700BF05
:10849000006000402AB90C4BC031992243F82120DA
:1084A0007047012A03D1C031074B9F22F6E7022A09
:1084B00003D1C031044BA422F0E7092AF0D1C03126
:1084C000014BA922EAE700BF006000402AB90C4B2B
:1084D000C031982243F821207047012A03D1C031CE
:1084E000074B9E22F6E7022A03D1C031044BA32298
:1084F000F0E7092AF0D1C031014BA822EAE700BF1A
:10850000006000402AB90C4BC0319A2243F8212068
:108510007047012A03D1C031074BA022F6E7022A97
:1085200003D1C031044BA522F0E7092AF0D1C031B4
:10853000014BAA22EAE700BF006000402AB90C4BB9
:10854000C0319B2243F821207047012A03D1C0315A
:10855000074BA122F6E7022A03D1C031044BA62221
:10856000F0E7092AF0D1C031014BAB22EAE700BFA6
:10857000006000402AB9064BC031AE2243F82120EA
:108580007047012AFCD1C031014BB322F6E700BF8E
:10859000006000402AB9064BC031AD2243F82120CB
:1085A0007047012AFCD1C031014BB222F6E700BF6F
:1085B000006000402AB9064BC031B12243F82120A7
:1085C0007047012AFCD1C031014BB622F6E700BF4B
:1085D000006000402AB9064BC031B02243F8212088
:1085E0007047012AFCD1C031014BB522F6E700BF2C
:1085F000006000402DE9F84FB44B9F6803681F2BC3
:108600000446154603D9002062B6BDE8F88F40370E
:1086100072B6012940F09080002AF4D0936821338B
:1086200040F08880036812681A441F2AEBD86A68F1
:10863000DFF8B48247F82320C033332248F82320E0
:1086400090F90000FFF7C6FD94F90030C0330C210B
:1086500058F823206FF3104248F8232094F90000C3
:10866000FFF78AFD94F90000FFF79AFD2368AB60DD
:108670005A1C69682260C13347F82210342248F836
:10868000232094F90000FFF7A5FD94F90030C033D2
:108690000C2158F823206FF3104248F8232094F956
:1086A0000000FFF769FD94F90000FFF779FD2368EA
:1086B00069685A1CC133226047F82210312248F8F9
:1086C000232094F90000FFF785FD94F90030C033B2
:1086D0000C2158F823206FF3104248F8232094F916
:1086E0000000FFF749FD94F90000FFF759FD2368EA
:1086F00069685A1CC133226047F82210322248F8B8
:10870000232094F90000FFF765FD94F90030C03391
:108710000C2158F823206FF3104248F8232094F9D5
:108720000000FFF729FD94F90000FFF739FD2368E9
:1087300001332360012067E702290DD1002A3FF4AD
:1087400062AF93682133F5D10068136818441F287D
:108750008CBF0020012057E7032911D1002A3FF4E4
:1087600052AF92F912302133E4D10E2353740168D1
:10877000574B917447F82130127CFFF7F7FDD6E78D
:10878000042949D1002A3FF43EAF92F90730213342
:1087900031D101680B1D202B3FF635AF0C264D4B18
:1087A000D171967147F821301278FFF773FE016896
:1087B000494B0131016069722E7247F821302A78E5
:1087C000FFF7A0FE0168454B0131016069712E7110
:1087D00047F821302A78FFF779FE0168404B0131D4
:1087E0000160AE72E97247F821302A78FFF7A6FEE1
:1087F00003680133036095F90700FFF7D1FC95F991
:108800000900FFF7CDFC95F90500FFF7C9FC95F9C4
:108810000B00FFF7C5FC8DE7002940F09480002A8B
:108820003FF4F1AE137A3BBB126892F90D3021335D
:108830001ED10C231373036853732A4A47F823206D
:10884000C033294A262142F823102B68686893F91F
:108850000D101B7B01F160421B0102F56142DBB28E
:1088600082F80033214B43F8210023680133236051
:108870002B6893F90D00CCE7012B39D1126892F9DE
:108880000F3021331ED10C2393730368D373154A21
:1088900047F82320C033144A272142F823102B68BD
:1088A000686893F90F109B7B01F160421B0102F590
:1088B0006142DBB282F800330C4B43F8210023689D
:1088C000013323602B6893F90F00A2E700ED00E06D
:1088D00021700000B54E000025510000A14F00009E
:1088E00065510000B956000000600040C802002039
:1088F000022B7FF488AE126892F9113021331ED119
:108900000C23137403685374A84A47F82320C03318
:10891000A74A282142F823102B68686893F91110A0
:108920001B7C01F160421B0102F56142DBB282F85F
:108930000033A04B43F821002368013323602B68E8
:1089400093F9110065E7052973D1002A3FF45BAE66
:1089500016680C23737396F90F30213348D10168E0
:108960000B1D202B3FF64FAEF1733278DFF8788283
:10897000DFF84092FFF74EFD90F9003008EB03025C
:108980004FF0C00A82F800A3016849F82360013162
:108990002B680160B1731A78FFF74CFD90F9003035
:1089A00008EB030282F800A3016849F82360013153
:1089B0002B68016031741A78FFF74CFD90F9003094
:1089C00008EB030282F800A3016849F82360013133
:1089D0002B68016071741A78FFF74CFD90F9003034
:1089E000984488F800A349F82360036801330360C2
:1089F00096F90F00704B47F8203096F90E306F4A09
:108A000047F8232096F910306D4A47F8232096F94D
:108A100011306C4A47F82320FFF7C2FB96F90E008D
:108A2000FFF7BEFB96F91000FFF7BAFB96F91100AD
:108A3000EFE6062956D1002A3FF4E5AD16680C236F
:108A4000737396F90F30213341D10168CB1C202B71
:108A50003FF6D9AD5C4BF17347F821303278DFF83F
:108A60008881DFF85091FFF715FD90F9003008EB91
:108A700003024FF0C00A82F800A3016849F823609E
:108A80000131524B0160B17347F821302B681A78DD
:108A9000FFF71CFD90F9003008EB030282F800A3F9
:108AA000016849F823600131494B0160317447F88E
:108AB00021302B681A78FFF725FD90F90030984493
:108AC00088F800A349F8236003680133036096F92E
:108AD0000F00FFF765FB96F90E00FFF761FB96F9B3
:108AE000100096E607294CD1002A3FF48CAD55685A
:108AF00040F60C432B8295F90D30213320D10168CB
:108B00000B1D202B3FF67FAD69732A78FFF782FC9F
:108B10000168013101602A782973FFF78BFC016835
:108B2000013101602A78A973FFF794FC01680131D3
:108B300001602A78E973FFF79DFC03680133036045
:108B400095F90D00234B47F8203095F90C30224A57
:108B500047F8232095F90E30204A47F8232095F94D
:108B60000F301F4A47F82320FFF71AFB95F90C0036
:108B7000FFF716FB95F90E00FFF712FB95F90F00B2
:108B800047E6082932D1002A3FF43DAD92F9023080
:108B900021337FF4CFAD0C2353700168114B9170DA
:108BA00047F821301278FFF745FBC0E52157000058
:108BB00000600040C8020020E15F0000A55E0000E8
:108BC000CD6000009161000031540000115400009C
:108BD000C95500009D5A000071590000455B000016
:108BE000D95B0000D162000000E100E0092978D1E2
:108BF000002A3FF408AD566896F90230213365D15A
:108C000001680B1D202B3FF6FEAC92F808A0AC4B80
:108C1000D2F80090B1704FF0060B86F806B05246BD
:108C200047F82130FFF7A6FCA64D96F90220B3794C
:108C3000DFF8BC82A9181B01DBB281F800330168A0
:108C4000A14B48F82290013101605246717086F8BC
:108C500005B047F82130FFF79DFC96F901207379A4
:108C6000A9181B01DBB281F800330168974B48F863
:108C70002290013101605246317186F808B047F800
:108C80002130FFF7A7FC96F90420337AA9181B01BD
:108C9000DBB281F8003301688D4B48F82290013136
:108CA00001605246F17086F807B047F82130FFF7AF
:108CB00081FC96F90320F37915441B01DBB285F89A
:108CC0000033036848F822900133036096F90200EC
:108CD000FFF766FA96F90100FFF762FA96F90400C9
:108CE00097E50A297CD1002A3FF48DAC566896F9A5
:108CF0000230213365D101680B1D202B3FF683AC78
:108D000092F808A0734BD2F80090B1704FF0060BA8
:108D100086F806B0524647F82130FFF7BBFB694D95
:108D200096F90220B379DFF8C881A9181B01DBB2DC
:108D300081F800330168684B48F8229001310160E6
:108D40005246717086F805B047F82130FFF7BEFB38
:108D500096F901207379A9181B01DBB281F8003361
:108D600001685E4B48F82290013101605246317132
:108D700086F808B047F82130FFF7E0FB96F90420A9
:108D8000337AA9181B01DBB281F800330168544B18
:108D900048F82290013101605246F17086F807B020
:108DA00047F82130FFF7AEFB96F90320F37915441D
:108DB0001B01DBB285F80033036848F822900133C9
:108DC000036096F90200FFF7EBF996F90100FFF74F
:108DD000E7F996F90400FFF7E3F996F9030018E5BF
:108DE0000B297FF410AC002A3FF40DACD2E900153A
:108DF0000C232B7595F91530213356D10368DA1CF5
:108E0000202A3FF600AC374A6B7547F823202A68C2
:108E100022B9C033344A4A2042F8230095F915009C
:108E20002B7D324E00F1604202F561421B01DBB244
:108E300082F8003322682E4B43F82010501C20602B
:108E4000A87547F82060286820B9C13226484D2609
:108E500040F8226095F916602A7D06F1604000F521
:108E600061401201D2B280F80023226843F8261034
:108E7000501C204E2060E87547F82060286820B913
:108E8000C13219484E2640F8226095F917602A7DB4
:108E900006F16040120100F56140D2B280F8002373
:108EA00043F8261023680133236095F91500FFF776
:108EB00077F995F91600FFF773F995F91700A8E40B
:108EC0000D44000000E100E071430000C5450000D2
:108ED000E54400001D52000085520000355300009B
:108EE000F9520000DD6A000000600040B16B000034
:108EF000C8020020C96C000008B53C2200210248CD
:108F000004F09CFD08BD00BF6C03002070B5002478
:108F1000064D264655F8240020B12C2103F08AFE88
:108F200045F8246001340F2CF4D170BD6C0300208F
:108F30000020704701207047036840F213421B6A0B
:108F4000184790F83D34002BFBD07047D0F82C32F6
:108F50002BB1D0F82832184490F8240070474FF015
:108F6000FF30704713B5044690F8A8048DF8071039
:108F7000002378B184F83C34012284F83D340DF1AB
:108F8000070104F58860FBF78BFB94F83C34002B59
:108F9000FBD0012002B010BD0023C0F82432C0F87D
:108FA0002832C0F82C32C0F83034C0F83434C0F85D
:108FB000383400F58860FBF7EDBB036813B962B67F
:108FC000BFF36F8F704713B5EFF310830093012346
:108FD000019372B6019B5A1E01923BB1D0F82C420C
:108FE0006846FFF7EAFF204602B010BD6846FFF76B
:108FF000E4FF4FF0FF34F6E70268224B53F82230CB
:1090000013B54BB10279042A0CD0802A06D0022A6B
:1090100002D1012283F83D2402B010BD012283F861
:109020003C24F9E7D3F82C22B2F5007FF4D0007A83
:10903000EFF3108200920122019272B6019A013A76
:10904000511C1AD0D3F82C12B1F5007F02F1FF3475
:1090500011D0D3F82412194481F82400D3F8241233
:109060000131C1F30801C3F82412D3F82C120131E5
:10907000C3F82C12E3E72246E2E768460192FFF7C5
:109080009CFFC9E7A803002013B5EFF310830093FA
:109090000123019372B6019B5A1E0192E3B1D0F8ED
:1090A0002C32B3B1D0F82832034493F82440D0F8DE
:1090B00028320133C3F30803C0F82832D0F82C3229
:1090C000013BC0F82C326846FFF777FF204602B01C
:1090D00010BD4FF0FF34F6E76846FFF76EFF4FF024
:1090E000FF34F3E738B5044600254FF47A70C4E93D
:1090F0000150A3611848049BE361C4E90412206095
:1091000029464FF4007204F1240004F097FCC4F8DF
:1091100024524FF40072C4F828522946C4F82C5245
:1091200004F50C7004F08AFC0123C4F83054C4F830
:109130003454C4F8385484F83C3484F83D34DF2384
:1091400084F8A85484F8773484F8793484F8753432
:1091500084F87B34204638BDA808010010B50C46C1
:10916000FFF74CF822460421BDE81040FFF742BA51
:10917000F0B50369002B85B0044602DA002005B083
:10918000F0BD4269002AF9DB8B42F7DA8A42F5DA50
:10919000D9B20022684602AE03F0B4FC0122217D60
:1091A000304603F0AFFC00223DF812500021AB1115
:1091B000002D45D036F81200002841D036F81100B5
:1091C00083EA9017FF063BD103F01F0323620028B8
:1091D000D4D0092BD2DC15F4F04F23691C4E0CBF00
:1091E0004FF080624FF0A06236F8331010F4F04F69
:1091F00042F4803217480CBF4FF080654FF0A065F5
:10920000FCF70AFB6369134836F8331045F48035E0
:109210002A46FCF701FBA3695A1C0FD0E269013210
:109220000CD036F833100B482A46FCF7F5FAE36900
:10923000084836F833102A46FCF7EEFA01209EE77C
:1092400001310329B4D10132032AADD196E700BF21
:10925000280701003C1A00202DE9F04104460E4683
:109260001546FBF714F801462046FFF781FF84F806
:10927000A804002800F0BD8094F891145E4B226A87
:109280006FF3010184F89114192143F82240A4F8E6
:10929000921494F89034012184F895140F2103F06E
:1092A000E70384F89C144FF6FF7143F04003A4F8E1
:1092B0009E14A1696FF3820384F8903404F59267D9
:1092C0000023013184F8943484F89634C4F89874F7
:1092D00084F8A03405D0E16901311CBF082184F86D
:1092E000A01484F8702404F29442C4F88C2440F250
:1092F00013424FF6FF71954284F8A23484F8A334E8
:10930000A4F8A414C4F88834C4F88034C4F87C34B5
:109310003ED02DD840F21142954248D040F2124240
:1093200095424AD0354BC4F8843404F58E684146E2
:109330002046FFF713FF94F8A834184084F8A804D7
:1093400001213B4640F6B8323046FBF7F1FC94F879
:10935000931429B93B4640F6B8323046FBF7E8FC97
:1093600004F5886541462846FBF7BEFA78B3FEE768
:1093700040F23242954225D040F2334295420FD01E
:1093800040F231439D42CDD1022384F871340AE08A
:10939000022284F8712484F8723484F87334C1E7AB
:1093A000022284F8712484F872340123F5E7022242
:1093B00084F8712484F87224EFE7022284F871247F
:1093C0000322F7E7022384F871340323EBE73946DD
:1093D0002846FBF7BDF900B1FEE7C4F82402C4F843
:1093E0002802C4F82C02C4F83004C4F83404C4F8C9
:1093F0003804BDE8F08100BFA8030020F98F000009
:1094000030B58C18A14208D0D0F8603411F8015B57
:10941000DD701D796D07FCD5F4E7104630BDFFFF08
:1094200007B54FF0FF330093172216210248FFF7CC
:1094300059FE03B05DF804FBD003002007B54FF0E0
:10944000FF330093002201210248FFF74BFE03B0D7
:109450005DF804FB7C08002007B54FF0FF33009354
:10946000192218210248FFF73DFE03B05DF804FB06
:10947000280D00200148FEF79BBB00BFD41100203F
:109480000148FEF735BE00BFD4110020F8B5094FE2
:10949000054600240126AA6C06FA04F3134205D0FF
:1094A00007EB440261B22846FDF70CFE01341D2C87
:1094B000F1D1F8BD18120020837870B5044683B945
:1094C0000E4D2A68AAB103883BB90D48FFF7DEFFAD
:1094D0002B682078BDE870401847012BF8D1094867
:1094E000F4E7012B05D00A2B04D1074B1B68002B96
:1094F000EFD170BD0B2BFCD1044BF7E70C12002011
:1095000054120020B012002010120020141200206B
:10951000F0B5044685B0002843D0002380F83230EF
:10952000C1F38415836C012707FA05F213438364A2
:1095300000F13001FDF79EFE04AE04F14801204623
:10954000FDF7C8FD2046FDF7AFFD06F8047D9DF848
:109550000C30012B04D131462046FDF7ABFDF6E778
:109560000DF10E0229462046FDF7ACFD0E4BBDF86D
:109570000E0093F83330052B9CBF0C4AD2560C4B8F
:109580001B684FF0010101FA03F388BF002200932A
:10959000002301FA02F2194600F01CFA80B205B06D
:1095A000F0BD4FF0FF30FAE754120020D40801005C
:1095B0001400002013B50A220C46C1B2684603F01D
:1095C000A1FABDF800205AB1064B074902F4F04059
:1095D000B0F5006F0CBF18460846228002B010BDDF
:1095E0001046FAE7B012002054120020F0B5012610
:1095F00080F82560C0E90F23022600F1240300252E
:1096000040F60C4780F826600186DF26032143647C
:109610004FF4C05380F8245080F8275080F8285029
:1096200080F8295080F82A6080F82B60878580F8C0
:10963000325080F8331080F8345080F8355080F87C
:10964000366080F837600787C0E91255C0E91455C5
:10965000A0F85850A0F85A30F0BD10B50446406D3F
:1096600010B1142103F0E6FA204610BD37B50D28DD
:10967000044602A998BF0E34002321F8023D20467B
:10968000FFF798FF074B05464FF4004133F83400CD
:1096900001F0B4F8BDF806102846FFF739FF03B013
:1096A00030BD00BF28070100042838B598BF104B13
:1096B000104C98BF1D5CA36888BF002513B12046DD
:1096C000FDF7F8FE0C4984F828500C4CA1F130004D
:1096D000FDF7D0FDA36813B12046FDF7EBFE084966
:1096E00084F82850A1F13000BDE83840FDF7C2BD34
:1096F000DA0801005412002084120020B012002069
:10970000E0120020FFFFFFFF2DE9F04D3C4B93F8E6
:109710002830192B2DED028B6BD057D8012B62D03E
:10972000022B63D0374CD4ED007AF5EE407AF1EE9F
:1097300010FA48D10020FFF7B7FF052001F0FAF832
:109740000FF2B40BDBE900AB9FED2F8ADFF8C0808E
:109750000A251420FFF78AFF07EE900AF8EEE77A51
:1097600067EE887A17EE900A03F0CCFB52465B4610
:1097700003F020FCD8F800300646012098400F4640
:1097800003F0AEFB02460B463046394603F03CFD83
:10979000064620680F4603F0B5FB02460B463046EE
:1097A000394603F051FA03F0D5FE013D07EE900A69
:1097B0002060CED1F2EE046A87EEA67A052084ED11
:1097C000007AFFF771FF94ED000A08E01D2B04D02A
:1097D0001F2BA7D1B0EE040A01E0B0EE000ABDECE9
:1097E000028BBDE8F08D9FED090AF8E79FED060AB0
:1097F000F5E7B7EE080AF2E7295C8FC2F5A820402A
:10980000541200200C1300203D0AB73F0000C07F17
:1098100014000020014B1868704700BF10000020A2
:10982000F0B585B00E280646019115D10D220146EE
:1098300002A803F067F9BDF8083003F4F042B2F56E
:10984000006F6FD013F4F86F6CD10199364805B0F2
:10985000BDE8F04000F0F6BE344D2A6800239A427D
:1098600007D0E91809798E4217D1063355F82340FD
:109870000CBB402003F0B6F93146044600F0C6FFA9
:109880002B68132B0BD9204600F0CAFF402120463D
:1098900005B0BDE8F04003F0CDB90133DFE7EA18C9
:1098A000204616719A1D013345F822402B6000F0C6
:1098B000F9FF0028E7D01E4B33F836301A12120198
:1098C00052FA83F31B4A52F82330DB0305D42046B7
:1098D00001F020F8204600F0E5FFDDED017AF8EE1A
:1098E000E77A17EE900A03F00DFB0022124B03F00B
:1098F00061FB124B1B6806460120984001380F4659
:1099000003F0EEFA02460B463046394603F07CFC83
:1099100003F020FE00EE100A204605B0BDE8F0403E
:1099200000F0D8BF05B0F0BDA01400201013002037
:1099300028070100000804400000594010000020E2
:1099400030B5094B53F8144B00218C4207D053F823
:10995000042F92F82450A84202D00131F5E70022EA
:1099600002F1080030BD00BF1013002038B50E4CC6
:109970000E4D0F48002322461946FFF737FE0023FD
:1099800001210C48FFF732FE28460024214640F80A
:10999000044B142204F052F85022214605F118001D
:1099A00004F04CF838BD00BFB9940000101300203B
:1099B00054120020B012002008B50448FFF74DFEF5
:1099C0000348BDE80840FFF748BE00BFB0120020C2
:1099D0005412002010B5029C401AE41A6043521A37
:1099E00090FBF2F0184410BD2DE9F04F027D012AE2
:1099F00085B005460F4640F0978000214FF0FF3BB1
:109A000004460B465E4694F804C048B2BCF1000F11
:109A10007CD194F805C0BCF1000F77D1B6F1FF3FBF
:109A20001BBF01335BB201233046934201DD1A466E
:109A300083460131082904F1020465D1002402EBB8
:109A40000B03A1460293CB4502DC029B4B4560DC35
:109A50006E7995F804A04FEA26180AF00F035FFA12
:109A600088F25FEA2A1A019206F00F0677D05FFAB1
:109A70008AF1BAF1090FCABF5731303149B23846BD
:109A8000039300F0D3F8039B0444092B8ABF03F12E
:109A9000570103F1300149B23846039300F0C6F88C
:109AA0000444BAF1000F04D1039B13B9B8F1000FBD
:109AB0000DD0019BB8F1090FD4BF03F1300803F1B9
:109AC00057084FFA88F1384600F0B0F80444092EE0
:109AD0008ABF573606F1300171B2384600F0A6F859
